:100000000C9424010C94B8010C9441010C9441010E
:100010000C9441010C9498020C9441010C94410100
:100020000C9441010C9441010C9441010C94410148
:100030000C9441010C9441010C9470010C94410109
:100040000C9441010C9441010C9441010C94410128
:100050000C9441010C9441010C9441010C94410118
:100060000C9441010C944101000000000000005F6D
:1000700000000007000700147F147F14242A7F2A41
:10008000122313086462364955225000050300000C
:10009000001C2241000041221C0014083E081408E4
:1000A000083E0808005030000008080808080060F2
:1000B00060000020100804023E5149453E00427F86
:1000C000400042615149462141454B311814127F8D
:1000D0001027454545393C4A494930017109050316
:1000E0003649494936064949291E0036360000007E
:1000F0005636000008142241001414141414004150
:100100002214080201510906324979413E7E11113B
:10011000117E7F494949363E414141227F4141227A
:100120001C7F494949417F090909013E4149497AF2
:100130007F0808087F00417F41002040413F017F48
:10014000081422417F404040407F020C027F7F0420
:1001500008107F3E4141413E7F090909063E415159
:10016000215E7F09192946464949493101017F012C
:10017000013F4040403F1F2040201F3F4038403F4C
:100180006314081463070870080761514945430068
:100190007F41410002040810200041417F00040219
:1001A0000102044040404040000102040020545439
:1001B00054787F48444438384444442038444448C0
:1001C0007F3854545418087E0901020C5252523E92
:1001D0007F0804047800447D40002040443D007FB7
:1001E0001028440000417F40007C041804787C08FB
:1001F00004047838444444387C1414140808141453
:10020000187C7C080404084854545420043F44409B
:10021000203C4040207C1C2040201C3C4030403C86
:1002200044281028440C5050503C4464544C440022
:100230000836410000007F00000041360800100829
:10024000081008000000000011241FBECFEFD8E006
:10025000DEBFCDBF11E0A0E0B1E0E6E5F9E102C00C
:1002600005900D92A233B107D9F723E0A2E3B1E0E4
:1002700001C01D92AE34B207E1F70E9433040C9422
:10028000A90C0C94000084B18F6784B98AB1827C78
:100290008AB98DE38BB9E9E6F0E082E0808391E0F2
:1002A0009DBB24E02093680091E390936D009081C2
:1002B0009260908384BD93E095BD99EF97BD809344
:1002C0006E0085E480937C0087EE80937A00109224
:1002D0007B0083E28093B0002093B100789408956E
:1002E0001F920F920FB60F9211242F933F934F93AB
:1002F0005F936F937F938F939F93AF93BF93EF938E
:10030000FF938091480190914901A0914A01B091D9
:100310004B01BC01CD016F5F7F4F8F4F9F4F6093AB
:1003200048017093490180934A0190934B0121E069
:100330002093530124E630E040E050E00E94890819
:10034000672B682B692B19F481E080935201FF9190
:10035000EF91BF91AF919F918F917F916F915F913D
:100360004F913F912F910F900FBE0F901F901895B6
:100370001F920F920FB60F921124AF92BF92CF929D
:10038000DF92EF92FF920F931F932F933F934F9320
:100390005F936F937F938F939F93AF93BF93EF93ED
:1003A000FF9380913701853009F057C08091480153
:1003B00090914901A0914A01B0914B0120913301E4
:1003C000309134016C01C21AD30A809333019093A7
:1003D0003401A0933501B0933601E12CF12C60EE8D
:1003E00073E984E090E0A70196010E94AB08309386
:1003F0004F0120934E012091000130910101A5E3AE
:10040000B2E00E94CA08A70196010E9489083093B1
:1004100051012093500110923701209178003091C2
:10042000790040E050E0209344013093450140932F
:10043000460150934701AFEFB0E00E94D9082EEF7C
:1004400033E040E050E00E9489082093400130935F
:1004500041014093420150934301809137018F5FE6
:1004600080933701609100017091010180E090E07C
:100470000E94340723E230E149E450E40E9410086E
:100480006B017C01209138013091390140913A0192
:1004900050913B0160913C0170913D0180913E0182
:1004A00090913F010E947107A70196010E948C065E
:1004B0000E94FD06209338013093390140933A01A0
:1004C00050933B0160933C0170933D0180933E014A
:1004D00090933F010F2EF0EAAF2EF02D0F2EF6E88D
:1004E000BF2EF02DCC24C394D12CE12CF12C00E0B4
:1004F00010E00E94E60820934C0130934D01FF91DB
:10050000EF91BF91AF919F918F917F916F915F918B
:100510004F913F912F911F910F91FF90EF90DF909E
:10052000CF90BF90AF900F900FBE0F901F90189577
:100530001F920F920FB60F9211248F939F934C9995
:100540000CC08091000190910101883C910528F434
:10055000019690930101809300014D990CC0809108
:100560000001909101018230910528F0019790934C
:10057000010180930001489914C01092010110926A
:100580000001109238011092390110923A01109234
:100590003B0110923C0110923D0110923E011092DD
:1005A0003F019F918F910F900FBE0F901F90189554
:1005B000CF93AC01FB018081882309F496C0809120
:1005C0003201813051F1823009F456C0811187C067
:1005D00085B1807885B985B1806685B9C5B19A0144
:1005E000ADECBCEC0E94CA089695879596958795C8
:1005F000969587959C01220F331F880F991F880FAE
:10060000991F880F991F820F931F9A01281B390B7E
:10061000C9018F708C2B85B962C085B1807885B98E
:1006200085B1806585B9C5B19A01ADECBCEC0E947D
:10063000CA08AC01569547955695479556954795E6
:100640009A010E94CA0896958795969587959695E2
:1006500087959C01220F331F880F991F880F991FC0
:10066000880F991F820F931F9A01281B390BC9010C
:100670008F708C2B85B933C085B1807885B985B1F1
:10068000806385B9C5B19A0136952795369527952A
:10069000ABE7B4E10E94CA08AC01569547959A01B0
:1006A000ADECBCEC0E94CA08969587959695879507
:1006B000969587959C01220F331F880F991F880FED
:1006C000991F880F991F820F931F9A01281B390BBE
:1006D000C9018F708C2B85B98FEF80933201809187
:1006E00032018F5F809332011082CF910895AF92D3
:1006F000BF92CF92DF92EF92FF920F931F93CF930F
:10070000DF93CDB7DEB72E970FB6F894DEBF0FBEDE
:10071000CDBFF9018081882309F494C079018091CB
:1007200001018F93809100018F9302E011E01F93EC
:100730000F936E01FBE0CF0ED11CDF92CF920E948F
:10074000990980914F018F9380914E018F931F9350
:100750000F93CE0101965C019F938F930E9499099C
:1007600080914D018F9380914C018F931F930F9334
:100770008E01095F1F4F1F930F930E9499090E94DA
:10078000810560E080E00E946D0661E085E091E017
:100790000E94490640E560E08AE00E945A066FE048
:1007A00080E00E946D0661E081E191E00E944906CF
:1007B00061E0C6010E94490669E180E00E946D0681
:1007C00061E08CE191E00E94490661E0C5010E9470
:1007D000490663E288E20E946D0662E0C8010E9459
:1007E000490661E082E291E00E9449060FB6F89462
:1007F000DEBF0FBECDBF4F9909C063E280E00E940B
:100800006D0662E085E291E00E9449064F9B16C0AA
:100810004E9909C063E280E00E946D0662E089E2C1
:1008200091E00E9449064E9B09C063E280E00E946D
:100830006D0662E08DE291E00E9449060E94720618
:10084000F70110822E960FB6F894DEBF0FBECDBF13
:10085000DF91CF911F910F91FF90EF90DF90CF909C
:10086000BF90AF900895CF93DF93CDB7DEB7609779
:100870000FB6F894DEBF0FBECDBF0E9443010E94A9
:10088000290500E010E014C0C8010E945C0CE1E002
:10089000F0E0EC0FFD1FE00FF11F8083CE01019609
:1008A0000E94430990930101809300010F5F1F4F45
:1008B000043011054CF304E010E018C0780184E026
:1008C000E81AF108C8010E945C0CE1E0F0E0EC0FCE
:1008D000FD1FEE0DFF1D8083CE0101960E9443098E
:1008E00090934D0180934C010F5F1F4F093011050C
:1008F0002CF3A0914C01B0914D0120EA36E841E083
:1009000050E00E94D90860933801709339018093B8
:100910003A0190933B01DC01CB01BB0F880B982F70
:10092000DC0180933C0180933D0180933E018093E4
:100930003F01809140018093B40063E571E08091B4
:100940005001909151010E94D80240914C01509168
:100950004D0160914E0170914F0122E531E080918F
:100960000001909101010E9477034AE050E0BE012E
:10097000675F7F4F80910001909101010E946109A2
:1009800000E010E00CC0E9E0F0E0EC0FFD1FE00F2C
:10099000F11F6081C8010E94640C0F5F1F4F04307B
:1009A00011058CF34AE050E0BE01675F7F4F8091F4
:1009B0004C0190914D010E94610904E010E00EC0CD
:1009C000F801349789E090E08C0F9D1FE80FF91F24
:1009D0006081C8010E94640C0F5F1F4F0830110531
:1009E0007CF3A7CF98B1977F98B9662329F098B187
:1009F000946098B990E01FC098B19B7F98B9FACFE6
:100A000047E050E0491B5109282F30E002C03595DE
:100A100027954A95E2F720FF04C028B1226028B943
:100A200003C028B12D7F28B928B1216028B928B189
:100A30002E7F28B99F5F983018F388B1886088B9F5
:100A4000089560E00E94F204089561E00E94F204BB
:100A50000895CF93DF9387B1886087B987B18061AC
:100A600087B987B1846087B987B1826087B987B158
:100A7000816087B988B1806188B988B1886088B998
:100A800083EC99E00197F1F700C0000088B18F7EF8
:100A900088B98BE594E40197F1F700C0000088B1B4
:100AA000806188B988B1877F88B981E20E94210579
:100AB00083E10E94210586E00E94210582EC0E94CC
:100AC000210580E20E94210589E00E94210580E83D
:100AD0000E94210580E40E942105C0E0D0E004C00E
:100AE00080E00E9425052196C83F91E0D907C0F318
:100AF00088E00E9421058CE00E942105DF91CF91C2
:100B0000089580E80E94210580E40E94210510924A
:100B10004C0310924D0380E090E005C0FC01EC5ABC
:100B2000FE4F10820196883F21E09207B8F30895A6
:100B3000262F26952695269590E034E5239F800D57
:100B4000911D1124442379F0677021E030E002C048
:100B5000220F331F6A95E2F7FC01EC5AFE4F8081A9
:100B6000282B20830895677021E030E002C0220F17
:100B7000331F6A95E2F7FC01EC5AFE4F2095808105
:100B8000282320830895EF92FF920F931F93CF9312
:100B9000DF93E82EF62E00E045C02E2D30E02052E7
:100BA0003109802F6F2D0E947D08F901EE0FFF1F84
:100BB000EE0FFF1FE20FF31FE80FF11DE859FF4F83
:100BC000E491812F0E947D08F0E002C0F595E79541
:100BD0008A95E2F7E0FF0AC060914D0380914C03D3
:100BE000610F41E0800F0E94980509C060914D039C
:100BF00080914C03610F40E0800F0E9498051F5FB9
:100C000001C010E0212F30E0CE01880F991F880F1E
:100C1000991F880F991F8C1B9D0B281739070CF4FF
:100C2000BCCF0F5F202F30E0CF2DD0E0CE01880F5A
:100C3000991F880F991F8C0F9D1F281739070CF3D8
:100C4000ECE4F3E08F2D880F880F8F0D9081890FD2
:100C50008F5F8083843570F010924C03EDE4F3E0F5
:100C60008F2D880F880F880F982F9F198081890FEB
:100C70008F5F808380914D03803320F010924C036E
:100C800010924D03DF91CF911F910F91FF90EF9044
:100C900008951F93CF93DF93EC01162F04C0219684
:100CA000612F0E94C30588818111F9CFDF91CF9117
:100CB0001F9108951F93CF93DF93182FC62FD42F22
:100CC00006C041E0612F8C2F0E949805CF5FDC1792
:100CD000C0F7DF91CF911F91089580934C036093EB
:100CE0004D030895CF93DF9380E80E94210580E4AF
:100CF0000E942105C0E0D0E007C0FE01EC5AFE4F83
:100D000080810E9425052196C83F81E0D807A8F37D
:100D1000DF91CF9108955058BB27AA270E94A306C0
:100D20000C94D6070E94C80738F00E94CF0720F025
:100D300039F49F3F19F426F40C94B5070EF4E095AE
:100D4000E7FB0C94AF07E92F0E94E70758F3BA17A7
:100D5000620773078407950720F079F4A6F50C94D1
:100D600009080EF4E0950B2EBA2FA02D0B01B90146
:100D700090010C01CA01A0011124FF27591B99F011
:100D8000593F50F4503E68F11A16F040A22F232F1D
:100D9000342F4427585FF3CF469537952795A7956D
:100DA000F0405395C9F77EF41F16BA0B620B730B14
:100DB000840BBAF09150A1F0FF0FBB1F661F771F85
:100DC000881FC2F70EC0BA0F621F731F841F48F43A
:100DD000879577956795B795F7959E3F08F0B0CFC3
:100DE0009395880F08F09927EE0F979587950895AA
:100DF000BEE304D008F490E80895BFE32227332728
:100E0000A9010E94EF0760F19F5748F1B91740F11F
:100E1000BFE3B91B9927B8503AF4660F771F881FB4
:100E2000991FB395D2F316C0B8504AF0232F342F30
:100E3000452F562F672F782F8827B850BAF7B85FFD
:100E400049F08695779567955795479537952795F6
:100E5000BA95B9F716F40E94B80788940895889453
:100E600060E070E0CB010895E89409C097FB3EF480
:100E700090958095709561957F4F8F4F9F4F9923E7
:100E8000A9F0F92F96E9BB279395F6958795779565
:100E90006795B795F111F8CFFAF4BB0F11F460FF25
:100EA0001BC06F5F7F4F8F4F9F4F16C0882311F07D
:100EB00096E911C0772321F09EE8872F762F05C091
:100EC000662371F096E8862F70E060E02AF09A952C
:100ED000660F771F881FDAF7880F9695879597F921
:100EE0000895E894F92F96EBFF2381F0121613066C
:100EF0001406440B9395F6958795779567955795C6
:100F00004040FF23B9F71BC099270895882351F467
:100F10009850D2F7872B762F652F542F432F322FDF
:100F200020E0B1F3121613061406440B88233AF09E
:100F30009A95440F551F661F771F881FCAF75523C0
:100F40004AF4440F551F11F460FF04C06F5F7F4FD8
:100F50008F4F9F4F880F9695879597F9089597F92A
:100F60009F6780E870E060E008959FEF80EC08954F
:100F70009095809570956095509540953095219508
:100F80003F4F4F4F5F4F6F4F7F4F8F4F9F4F089592
:100F900000240A9416161706180609060895002458
:100FA0000A9412161306140605060895092E0394D2
:100FB000000C11F4882352F0BB0F40F4BF2B11F446
:100FC00060FF04C06F5F7F4F8F4F9F4F089557FDA5
:100FD0009058440F551F59F05F3F71F04795880FA7
:100FE00097FB991F61F09F3F79F08795089512163E
:100FF00013061406551FF2CF4695F1DF08C01616EA
:1010000017061806991FF1CF86957105610508949A
:101010000895E894BB2766277727CB0197F90895B1
:101020000E9423080C94D6070E94C80738F00E943B
:10103000CF0720F0952311F00C94AF070C94B5075F
:1010400011240C940A080E94E70770F3959FC1F3DE
:10105000950F50E0551F629FF001729FBB27F00D66
:10106000B11D639FAA27F00DB11DAA1F649F6627BB
:10107000B00DA11D661F829F2227B00DA11D621F0A
:10108000739FB00DA11D621F839FA00D611D221FC4
:10109000749F3327A00D611D231F849F600D211DA8
:1010A000822F762F6A2F11249F5750409AF0F1F02B
:1010B00088234AF0EE0FFF1FBB1F661F771F881F94
:1010C00091505040A9F79E3F510580F00C94AF0716
:1010D0000C940A085F3FE4F3983ED4F38695779525
:1010E0006795B795F795E7959F5FC1F7FE2B880F3A
:1010F000911D9695879597F90895991B79E004C0FD
:10110000991F961708F0961B881F7A95C9F7809546
:101110000895A1E21A2EAA1BBB1BFD010DC0AA1F38
:10112000BB1FEE1FFF1FA217B307E407F50720F050
:10113000A21BB30BE40BF50B661F771F881F991FCB
:101140001A9469F760957095809590959B01AC0114
:10115000BD01CF010895052E97FB1EF400940E9457
:10116000C20857FD07D00E94890807FC03D04EF43F
:101170000C94C20850954095309521953F4F4F4FA4
:101180005F4F089590958095709561957F4F8F4F33
:101190009F4F0895A29FB001B39FC001A39F700D00
:1011A000811D1124911DB29F700D811D1124911D6F
:1011B00008950E94CA08A59F900DB49F900DA49F0A
:1011C000800D911D11240895689401C0E8948F92B8
:1011D0009F92CF93DF930E94F208DF91CF919F906F
:1011E0008F90089588249924F401E401B0E49F933A
:1011F000AA279A158B049C04ED05FE05CF05D007A0
:10120000A10798F4AD2FDC2FCF2FFE2FE92D982CBE
:10121000892E982F872F762F652F542F432F322F0B
:101220002227B85031F7BF9127C01B2EBF91BB2793
:10123000220F331F441F551F661F771F881F991FDA
:10124000881C991CEE1FFF1FCC1FDD1FAA1FBB1F90
:101250008A149B04EC05FD05CE05DF05A007B10748
:1012600048F08A189B08EC09FD09CE09DF09A00B9C
:10127000B10B21601A94E1F62EF49401AF01BE0186
:10128000CD01000C0895FC0188279927E89421914D
:101290002032E9F3293010F02E30C8F32B3241F020
:1012A0002D3239F4689404C00E947709820F911D91
:1012B000219120532A30C0F31EF4909581959F4FC1
:1012C00008954532510520F4423010F00C946C0919
:1012D000FB011082CB010895BB274A3031F49923DA
:1012E00022F4BDE2909581959F4F0C9480097AE09D
:1012F000979F902D879F802D910D11240895BB27D6
:10130000FB015527AA27880F991FAA1FA41710F0C1
:10131000A41B83955051B9F7A05DAA3308F0A95DCD
:10132000A193009779F7B111B1931192CB010C946D
:10133000B20BAEE0B0E0EFE9F9E00C94800C0D895F
:101340001E8986E08C831A8309838FEF9FE79E8333
:101350008D83AE01475E5F4F6F89788DCE01019618
:101360000E94BB09EF81F885E00FF11F10822E96D5
:10137000E4E00C949C0CABE0B0E0E1ECF9E00C9400
:10138000720C6C017B018A01FC0117821682838139
:1013900081FFCCC1CE0101963C01F6019381F7019A
:1013A00093FD859193FF81917F01882309F4BAC150
:1013B000853239F493FD859193FF81917F018532C8
:1013C00029F4B60190E00E94C20BE7CF912C212CAA
:1013D000312CFFE1F315D8F08B3279F038F48032FC
:1013E00079F08332A1F4232D20611DC08D3261F08C
:1013F000803369F4232D216016C0832D8260382E3E
:10140000E32DE4603E2E2AC0F32DF8601DC037FCAA
:101410002DC020ED280F2A3040F08E32B9F436FC72
:1014200081C1232D2064322E19C036FE06C08AE009
:10143000989E200D1124922E11C0EAE02E9E200DC0
:101440001124222EF32DF0623F2E08C08C3621F499
:10145000832D8068382E02C0883641F4F70193FD51
:10146000859193FF81917F018111B3CF982F9F7D4B
:101470009554933028F40C5F1F4F9FE399830DC060
:10148000833631F0833771F0833509F059C021C0BC
:10149000F801808189830E5F1F4F88248394912CEB
:1014A000530113C02801F2E04F0E511CF801A08037
:1014B000B18036FE03C0692D70E002C06FEF7FEF90
:1014C000C5010E94A70B4C018201F32DFF773F2E2F
:1014D00016C0280122E0420E511CF801A080B18004
:1014E00036FE03C0692D70E002C06FEF7FEFC501CB
:1014F0000E949C0B4C01F32DF0683F2E820133FCBF
:101500001BC0822D90E088169906B0F4B60180E2E7
:1015100090E00E94C20B2A94F4CFF50137FC85912C
:1015200037FE81915F01B60190E00E94C20B21104D
:101530002A9421E0821A91088114910471F7E8C07D
:10154000843611F0893641F5F80137FE07C0608115
:101550007181828193810C5F1F4F08C0608171810E
:10156000072E000C880B990B0E5F1F4FF32DFF7693
:101570003F2E97FF09C090958095709561957F4F9C
:101580008F4F9F4FF0683F2E2AE030E0A3010E946A
:10159000FE0B882E861845C0853731F4232D2F7E0B
:1015A000B22E2AE030E025C0932D997FB92E8F36D8
:1015B000C1F018F4883579F0B5C0803719F0883754
:1015C00021F0B0C0E92FE061BE2EB4FE0DC0FB2DAE
:1015D000F460BF2E09C034FE0AC0292F2660B22E47
:1015E00006C028E030E005C020E130E002C020E184
:1015F00032E0F801B7FE07C060817181828193817A
:101600000C5F1F4F06C06081718180E090E00E5F2B
:101610001F4FA3010E94FE0B882E8618FB2DFF771B
:101620003F2E36FE0DC0232D2E7FA22E891458F496
:1016300034FE0BC032FC09C0832D8E7EA82E05C05F
:10164000B82CA32C03C0B82C01C0B92CA4FE0FC029
:10165000FE01E80DF11D8081803321F49A2D997EE1
:10166000A92E09C0A2FE06C0B394B39404C08A2D6B
:10167000867809F0B394A3FC11C0A0FE06C0B21492
:1016800088F4280C922C9B180EC0B21460F4B6019A
:1016900080E290E00E94C20BB394F7CFB21418F42A
:1016A0002B1802C0982C212CA4FE10C0B60180E398
:1016B00090E00E94C20BA2FE17C0A1FC03C088E705
:1016C00090E002C088E590E0B6010CC08A2D8678D3
:1016D00059F0A1FE02C08BE201C080E2A7FC8DE2BE
:1016E000B60190E00E94C20B891438F4B60180E381
:1016F00090E00E94C20B9A94F7CF8A94F301E80D10
:10170000F11D8081B60190E00E94C20B8110F5CFDF
:10171000222009F442CEB60180E290E00E94C20B82
:101720002A94F6CFF6018681978102C08FEF9FEF52
:101730002B96E2E10C948E0CFC01059061507040F8
:101740000110D8F7809590958E0F9F1F0895FC018A
:101750006150704001900110D8F7809590958E0FE0
:101760009F1F0895DC01FC01672F71917723E1F73A
:10177000329704C07C916D9370836291AE17BF075E
:10178000C8F308950F931F93CF93DF93FB01238139
:1017900021FD03C08FEF9FEF2CC022FF16C04681B2
:1017A0005781248135814217530744F4A081B181C8
:1017B0009D012F5F3F4F318320838C93268137819A
:1017C0002F5F3F4F3783268314C08B01EC01FB0151
:1017D0000084F185E02D0995892BE1F6D801169654
:1017E0008D919C911797019617969C938E931697BF
:1017F000CE01DF91CF911F910F910895FA01AA2791
:10180000283051F1203181F1E8946F936E7F6E5F43
:101810007F4F8F4F9F4FAF4FB1E03ED0B4E03CD0F1
:10182000670F781F891F9A1FA11D680F791F8A1FD4
:10183000911DA11D6A0F711D811D911DA11D20D03B
:1018400009F468943F912AE0269F11243019305DF5
:101850003193DEF6CF010895462F4770405D4193E6
:10186000B3E00FD0C9F7F6CF462F4F70405D4A3333
:1018700018F0495D31FD4052419302D0A9F7EACFFB
:10188000B4E0A6959795879577956795BA95C9F72A
:1018900000976105710508959B01AC010A2E06941D
:1018A0005795479537952795BA95C9F7620F731FD6
:1018B000841F951FA01D0895F999FECF92BD81BD8B
:1018C000F89A992780B50895262FF999FECF1FBA67
:1018D00092BD81BD20BD0FB6F894FA9AF99A0FBE59
:1018E000019608952F923F924F925F926F927F924E
:1018F0008F929F92AF92BF92CF92DF92EF92FF9220
:101900000F931F93CF93DF93CDB7DEB7CA1BDB0BCB
:101910000FB6F894DEBF0FBECDBF09942A88398870
:1019200048885F846E847D848C849B84AA84B98477
:10193000C884DF80EE80FD800C811B81AA81B98183
:10194000CE0FD11D0FB6F894DEBF0FBECDBFED0197
:061950000895F894FFCF9A
:101956004100257500436F6D702E20426F72646FD3
:10196600004469616D28636D293A200052504D3A52
:1019760020004B6D005B505D005B445D005B525D7B
:0219860000005F
:00000001FF
