:100000000C9454010C9490020C9471010C947101A5
:100010000C9471010C946E030C9471010C94710199
:100020000C9471010C9471010C9412020C947101E6
:100030000C9471010C9403020C94A6010C947101B0
:100040000C9471010C9471010C9471010C94710168
:100050000C9471010C9471010C9471010C94710158
:100060000C9471010C947101050000000000050062
:10007000005F000005000700070005147F147F14CF
:1000800005242A7F2A12052313086462053649567F
:10009000205005080703000005001C224100050050
:1000A00041221C000514083E08140508083E0808F3
:1000B0000500B07000000508080808080500606029
:1000C0000000052010080402053E5149453E050088
:1000D000427F4000057249494946052141494D3357
:1000E000051814127F10052745454539053C4A4936
:1000F0004931054121110907053649494936054667
:100100004949291E05000014000005004034000084
:100110000508142241000514141414140541221476
:100120000800050201590906053E415D594E057C4E
:100130001211127C057F49494936053E4141412251
:10014000057F4141413E057F49494949057F0909EC
:100150000909053E41415173057F0808087F0500E4
:10016000417F4100052040413F01057F08142241A5
:10017000057F40404040057F020C027F057F040858
:10018000107F053E4141413E057F09090906053EB4
:100190004151215E057F0919294605264949493201
:1001A0000501017F0101053F4040403F051F204000
:1001B000201F053F4038403F0563140814630503C2
:1001C0000478040305615149454305007F4141001E
:1001D000050204081020050041417F0005040201CA
:1001E000020405404040404005070B000000052088
:1001F00054547840057F2844443805384444442802
:1002000005384444287F0538545454180500087EA6
:1002100009020518A4A49C78057F08040478050049
:10022000447D4000052040403D00057F10284400EB
:100230000500417F4000057C04780478057C0804B3
:10024000047805384444443805FC1824241805185B
:10025000242418FC057C080404080548545454243C
:100260000504043F4424053C4040207C051C2040FC
:10027000201C053C4030403C054428102844054CD7
:100280009090907C054464544C440500083641002D
:10029000050000770000050041360800050402044F
:1002A000080405007F417F0011241FBECFEFD8E076
:1002B000DEBFCDBF11E0A0E0B1E0E2E8FCE102C0AA
:1002C00005900D92AE32B107D9F725E0AEE2B1E06C
:1002D00001C01D92A536B207E1F70E94C4050C9437
:1002E0003F0E0C94000084B18E6F84B98AB1827C79
:1002F0008AB98DE38BB9E9E6F0E082E8808381E09A
:100300008DBB94E09093680081E380936D008081C1
:100310008268808382E084BD23E025BD29EF27BD6C
:1003200080936E0087EE80937A0010927B0010928B
:100330007E0083E28093B0009093B10084E48093C8
:10034000810081E280936F00789408951F920F924C
:100350000FB60F921124CF92DF92EF92FF922F935C
:100360003F934F935F936F937F938F939F93AF933D
:10037000BF93EF93FF93C0904101D0904201E09072
:100380004301F09044018FEFC81AD80AE80AF80A2E
:10039000C0924101D0924201E0924301F0924401A7
:1003A000C701B60125E030E040E050E00E94680D52
:1003B000672B682B692B19F481E080935B01C701DF
:1003C000B60124EF31E040E050E00E94680D672B59
:1003D000682B692B19F481E080935A01FF91EF910A
:1003E000BF91AF919F918F917F916F915F914F914D
:1003F0003F912F91FF90EF90DF90CF900F900FBE25
:100400000F901F9018951F920F920FB60F92112404
:100410008F9381E0809359018F910F900FBE0F90C1
:100420001F9018951F920F920FB60F9211242F93C1
:100430003F934F935F936F937F938F939F93AF936C
:10044000BF93EF93FF938091810086FF0FC080914F
:10045000860090918700A0E0B0E0809349019093DE
:100460004A01A0934B01B0934C012AC080918600B1
:1004700090918700A0E0B0E04091490150914A017D
:1004800060914B0170914C01841B950BA60BB70B2F
:10049000880F991FAA1FBB1F880F991FAA1FBB1F78
:1004A000880F991FAA1FBB1F880F991FAA1FBB1F68
:1004B0008093450190934601A0934701B093480172
:1004C000E1E8F0E0908180E4892780838091590100
:1004D000811113C0609145017091460180914701DF
:1004E000909148012AE330E040E050E00E94680D1E
:1004F000309352012093510102C010925901FF9193
:10050000EF91BF91AF919F918F917F916F915F918B
:100510004F913F912F910F900FBE0F901F90189504
:100520001F920F920FB60F921124CF92DF92EF928B
:10053000FF922F933F934F935F936F937F938F938C
:100540009F93AF93BF93EF93FF93809134018530D6
:10055000B9F58091410190914201A0914301B09180
:10056000440120913001309131016C01C21AD30A4B
:100570008093300190933101A0933201B093330105
:10058000E12CF12C60EE73E984E090E0A701960184
:100590000E948A0D3093560120935501209100014D
:1005A00030910101A5E3B2E00E94A90DA7019601D7
:1005B0000E94680D30935801209357011092340126
:1005C0008091570190915801459710F18091510108
:1005D000909152018C329140D8F420913D0130919C
:1005E0003E0140913F0150914001AFEFB0E00E94C9
:1005F000B80D26EF37E240E050E00E94680D2093EE
:10060000390130933A0140933B0150933C011AC0A9
:1006100020913D0130913E0140913F0150914001B8
:10062000AFEFB0E00E94B80D2FEF33E040E050E0B4
:100630000E94680D2093390130933A0140933B01A9
:1006400050933C01809134018F5F8093340160911D
:1006500000017091010180E090E00E946D0C23E2A6
:1006600030E149E450E40E94FB0C6B017C01609195
:1006700035017091360180913701909138010E94C7
:100680006D0CA70196010E94600B0E943E0C6093C6
:10069000350170933601809337019093380120EA39
:1006A00036E841E050E00E94680D309354012093F9
:1006B0005301FF91EF91BF91AF919F918F917F91E6
:1006C0006F915F914F913F912F91FF90EF90DF904D
:1006D000CF900F900FBE0F901F9018951F920F9202
:1006E0000FB60F9211248F939F934C990CC0809159
:1006F000000190910101883C910528F401969093A6
:100700000101809300014D990CC0809100019091EE
:1007100001018230910528F00197909301018093A7
:10072000000148990CC01092010110920001109232
:1007300035011092360110923701109238019F91C5
:100740008F910F900FBE0F901F901895CF93AC0113
:10075000FB018081882309F499C080912F018130A9
:1007600059F1823009F458C081118AC085B1817075
:1007700085B985B1806C85B9C5B19A01ADECBCEC89
:100780000E94A90D9695879596958795969587953C
:100790009C01220F331F880F991F880F991F880F04
:1007A000991F820F931F9A01281B390BC9018F7063
:1007B000880F8C2B85B964C085B1817085B985B1EE
:1007C000806A85B9C5B19A01ADECBCEC0E94A90D57
:1007D000AC015695479556954795569547959A017C
:1007E0000E94A90D969587959695879596958795DC
:1007F0009C01220F331F880F991F880F991F880FA4
:10080000991F820F931F9A01281B390BC9018F7002
:10081000880F8C2B85B934C085B1817085B985B1BD
:10082000806685B9C5B19A01369527953695279585
:10083000ABE7B4E10E94A90DAC01569547959A012A
:10084000ADECBCEC0E94A90D969587959695879581
:10085000969587959C01220F331F880F991F880F4B
:10086000991F880F991F820F931F9A01281B390B1C
:10087000C9018F70880F8C2B85B98FEF80932F0162
:1008800080912F018F5F80932F011082CF91089567
:100890008F929F92AF92BF92EF92FF920F931F930E
:1008A000CF93DF939C01FA019081992309F487C0CB
:1008B000EA017B01890190912E019130D1F018F06D
:1008C000923071F176C080E480937C008091780052
:1008D00090917900A0E0B0E080933D0190933E01BB
:1008E000A0933F01B0934001809139018093B400FF
:1008F00060C081E480937C00609178007091790001
:1009000080E090E00E946D0C2DE032E348EC5DE366
:100910000E94FB0C0E943E0CF8017183608349C069
:1009200082E480937C0008E710E0F8016081718127
:1009300080E090E00E946D0C2AE038E240EA5BE340
:100940000E94FB0C20E030E04AE754E40E94FB0CDC
:100950004B015C01F8016081718180E090E00E94B0
:100960006D0C2AE038E240EA5BE30E94FB0C9B013D
:10097000AC0160E070E080EA90E40E945F0B9B01B4
:10098000AC01C501B4010E94CC0B26E636E646E276
:1009900050E40E94FB0C20E030E042E853E40E9467
:1009A0005F0B0E943E0CF701718360838FEF809391
:1009B0002E0180912E018F5F80932E011882DF918E
:1009C000CF911F910F91FF90EF90BF90AF909F90AC
:1009D0008F9008958F929F92AF92BF92CF92DF92A5
:1009E000EF92FF920F931F93CF93DF936C014B0114
:1009F0007A015901E8014BE551E06DE471E08FE4C3
:100A000091E00E9448048881882309F4B0C00E94C4
:100A1000CB0720E048E065E088E690E00E94AD0961
:100A20000E949D090E94990962E083E00E94C2072A
:100A300082E091E00E94DD0A0FEF2AE042E361E0EC
:100A400081E00E942B0960E182E00E94C207B401AC
:100A500080E090E00E94F40A8BE091E00E94DD0AC1
:100A60006BE182E00E94C20780E191E00E94DD0A12
:100A7000B50180E090E00E94F40A88E191E00E94D4
:100A8000DD0A68E282E00E94C2078BE191E00E94E9
:100A9000DD0AB60180E090E00E94F40A88E191E06E
:100AA0000E94DD0A65E384E10E94C207B70180E08D
:100AB00090E00E94F40A85E291E00E94DD0A2EE3B4
:100AC0004AE362E38AE00E942B0920E24DE762E0FC
:100AD0008AE50E942B0968E08DE50E94C2076091BB
:100AE0004F017091500180E090E00E94F40A88E28A
:100AF00091E00E94DD0A65E18DE50E94C2076091E8
:100B00004D0170914E0180E090E00E94F40A8BE26A
:100B100091E00E94DD0A2CE34DE763E28AE50E9442
:100B20002B0928E349E767E28EE50E942B094F99DC
:100B300007C06DE28AE60E94C20780E50E94CC09E8
:100B40004F9B12C04E9907C06DE28AE60E94C20711
:100B500084E40E94CC094E9B07C06DE28AE60E94A5
:100B6000C20785E40E94CC0918820E949407DF9195
:100B7000CF911F910F91FF90EF90DF90CF90BF909A
:100B8000AF909F908F900895CF93DF93CDB7DEB74E
:100B900060970FB6F894DEBF0FBECDBF0E94730101
:100BA00000E010E014C0C8010E94290EE1E0F0E06E
:100BB000EC0FFD1FE00FF11F8083CE0101960E9414
:100BC000C30D90930101809300010F5F1F4F04300C
:100BD00011054CF304E010E018C0780184E0E81A35
:100BE000F108C8010E94290EE1E0F0E0EC0FFD1FC2
:100BF000EE0DFF1D8083CE0101960E94C30D9093E0
:100C00005401809353010F5F1F4F093011052CF3DE
:100C1000A0915301B091540120EA36E841E050E040
:100C20000E94B80D609335017093360180933701AF
:100C3000909338016BE571E08091570190915801D4
:100C40000E94A6032091510130915201409153011D
:100C50005091540160915501709156010AE511E0DF
:100C600080910001909101010E94EA044AE050E065
:100C7000BE01675F7F4F80910001909101010E944A
:100C8000E10D00E010E00CC0E9E0F0E0EC0FFD1F2A
:100C9000E00FF11F6081C8010E94310E0F5F1F4FEE
:100CA000043011058CF34AE050E0BE01675F7F4FCE
:100CB00080915301909154010E94E10D04E010E0F5
:100CC0000EC0F801349789E090E08C0F9D1FE80F6B
:100CD000F91F6081C8010E94310E0F5F1F4F08305D
:100CE00011057CF3A7CF669566956695E82FF0E031
:100CF00080E8689FE00DF11D1124EB59FE4F408301
:100D00000895669566956695E82FF0E080E8689FFF
:100D1000E00DF11D1124EB59FE4F80810895CF9312
:100D2000DF93DC01CB01FA0120E3228721872087B2
:100D3000278326832583248323832283218320837F
:100D4000BB234CF4B095A095909581959F4FAF4FE4
:100D5000BF4F31E008C030E006C09A5CAA49BB43EF
:100D600021812F5F218381152AEC92072AE9A207AE
:100D70002BE3B20794F706C0915EA54FB5402281E0
:100D80002F5F2283811521EE920725EFA20725E030
:100D9000B20794F707C080589649A849B109238142
:100DA0002F5F2383803826E9920728E9A207B1053F
:100DB00094F707C080549244AF40B10924812F5F5B
:100DC0002483803422E492072FE0A207B10594F730
:100DD00007C0805A9648A140B10925812F5F25831D
:100DE000803A26E8920721E0A207B10594F707C0F0
:100DF00080519742A109B10926812F5F2683803156
:100E000027E29207A105B1059CF707C0885E9340D1
:100E1000A109B10927812F5F2783883E23E092072C
:100E2000A105B1059CF707C084569109A109B10934
:100E300020852F5F208784369105A105B105A4F791
:100E400006C00A97A109B10921852F5F21878A3041
:100E50009105A105B105ACF706C00197A109B1093B
:100E600022852F5F2287181619061A061B06ACF377
:100E700020E001C02F5FDF01A20FB11D8C918033F4
:100E8000C9F3332331F02150DF01A20FB11D8DE2F0
:100E90008C934AE0421B30E00DC0832F90E0EF01BD
:100EA000C80FD91F820F911DDF01A80FB91F8C91A8
:100EB00088833F5F431788F7E30FF11D1082DF91AE
:100EC000CF9108950F931F93CF93DF93C82F8B017A
:100ED000D42F0E94410B88E70E94530B8C2F0E9455
:100EE000530BC0E007C0F801EC0FF11D80810E9498
:100EF000530BCF5FCD17B8F30E944B0BDF91CF910F
:100F00001F910F910895CF93DF931F92CDB7DEB756
:100F1000898341E0BE016F5F7F4F80E00E946207DE
:100F20000F90DF91CF910895CF9381E20E948307C4
:100F300080E00E9483078FE70E94830782E20E947D
:100F4000830780E00E94830787E00E948307C0E058
:100F50000BC080E1C89FB00111246B597E4F40E166
:100F600080E40E946207CF5FC03498F3CF91089568
:100F7000882314F080935C010895803410F48093EA
:100F80005D010895CF93C62F0E94B8078C2F0E9451
:100F9000BD07CF9108950E94280B8EEA0E94830717
:100FA00085ED0E94830780EF0E94830788EA0E94F4
:100FB00083078FE30E94830783ED0E94830780E00D
:100FC0000E9483078DE80E94830784E10E948307C3
:100FD00080E40E94830780E20E94830780E00E94F1
:100FE000830781EA0E94830788EC0E9483078AEDC9
:100FF0000E94830782E10E94830781E80E948307A1
:101000008FEF0E94830789ED0E94830781EF0E9482
:1010100083078BED0E94830780E20E94830784EAA6
:101020000E94830786EA0E9483078EE20E9483075C
:101030008FEA0E94830760E080E00E94C207ECE52F
:10104000F1E086EA8283178216821582118210826D
:101050000895FF920F931F93CF93DF93C62F142F02
:101060000E94C207ECE5F1E0F180D0816F2D8D2F59
:101070000E9481061F3F79F4C77001E010E020E074
:1010800030E004C0000F111F221F331FCA95D2F792
:10109000482F402B0FC0C77001E010E020E030E087
:1010A00004C0000F111F221F331FCA95D2F70095ED
:1010B000402F48236F2D8D2F0E947306DF91CF9113
:1010C0001F910F91FF9008956F927F928F929F9240
:1010D000AF92BF92CF92DF92EF92FF920F931F9346
:1010E000CF93DF9388230CF4A7C044230CF4A4C04F
:1010F000603408F0A1C0203408F09EC0261B99245B
:101100009394920E481BD1E0D40F962F9770162F10
:10111000191BE92CF12C28E030E0291B3109E216DB
:10112000F3067CF428E030E02E193F094FEF50E041
:101130006A0102C0D594C7942A95E2F72C2DB92CE8
:1011400004C028E0B22EB91A2FEFA82EC22ED12C3F
:1011500002C0CC0CDD1C9A95E2F76C2C612F0E942A
:10116000C207812C19C0ECE5F1E07180C081672DC8
:101170008C2F0E9481060F3F19F4462D482B03C087
:101180004C2D4095482381E08C0F80935C01672DA6
:101190008C2F0E94730683948D1628F316C088E066
:1011A000B80E185F612F8A2D0E94C207C0E00BC0E5
:1011B000ECE5F1E06181808191E0980F9083402F10
:1011C0000E947306CF5FCD1798F38B2D90E09C01A2
:1011D000285F3F4FE216F30614F7B91468F5E81AD2
:1011E000F90A8FEF90E002C0880F991FEA94E2F7A6
:1011F000E82EE09468E0610F8A2D0E94C20710E09B
:1012000019C0ECE5F1E0F180C0816F2D8C2F0E94B8
:1012100081060F3F19F44E2D482B03C04E2D4095EB
:10122000482381E08C0F80935C016F2D8C2F0E94EE
:1012300073061F5F1D1728F3DF91CF911F910F9148
:10124000FF90EF90DF90CF90BF90AF909F908F90E6
:101250007F906F900895DF92EF92FF920F931F930C
:10126000CF93DF9388230CF445C044230CF442C091
:10127000603408F03FC02034E8F5D02F122FD42E70
:10128000F62EE82E481718F0042FC82F09C0082F93
:10129000C42F06C04D2F6F2D8C2F0E942908CF5FC1
:1012A0000C17C0F7DE1418F00D2DCE2D09C00E2D31
:1012B000CD2D06C04D2F612F8C2F0E942908CF5FA6
:1012C0000C17C0F71F1518F0212F6F2D02C02F2DFE
:1012D000612F0D2F4E2D8E2D0E9464081F1518F0C2
:1012E000212F6F2D02C02F2D612F0D2F4D2D8D2DF4
:1012F0000E946408DF91CF911F910F91FF90EF90B2
:10130000DF9008951F93CF93DF93182FD0E00BC089
:10131000412F6D2F8C2F0E947306CF5F01C0C0E05C
:10132000CC23B4F7D85FD034D0F3DF91CF911F91A5
:10133000089580E00E948209089580915E01873AB5
:1013400021F486EA80935E0103C087EA80935E0100
:1013500080915E010E94830708956623E4F0403483
:10136000D0F42230C0F4ECE5F1E09483838365830C
:10137000468350E041505109CA0199230CF4079665
:10138000959587959595879595958795ECE5F1E0E9
:101390008F5F8783208708954F925F926F927F922D
:1013A0008F929F92AF92BF92CF92DF92EF92FF9275
:1013B0000F931F93CF93DF93ACE5B1E05C90119650
:1013C0004C901197805215969C91159717962C91D9
:1013D0001797929F900111242F5F3F4F829FA0018A
:1013E000839F500D11241396ED91FC9114975A018F
:1013F0008FEFA81AB80AE40FF51F7490842D877038
:10140000982E642C812C5FC0662D852D0E94C2070A
:101410007501E80CF11C670181E0C81AD10810E0E1
:1014200041C080915F0190916001FC01EE0DFF1DB4
:101430002491492D50E030E0092C02C0220F331FC7
:101440000A94E2F7022F8820A1F0FC01EC0DFD1DAB
:10145000E49188E090E0841B950BF0E002C0F595E4
:10146000E7958A95E2F70E2F022B80916301C80E53
:10147000D11C80916401813039F4ECE5F1E06181A7
:1014800080810E948106082BCCE5D1E069818881AA
:1014900091E0980F9883402F0E9473068F81E80E89
:1014A000F11C1F5F171508F4BCCF809164018111F6
:1014B00007C0ECE5F1E040E0618180810E947306A5
:1014C00088E0680E839480916301881608F49CCFAD
:1014D000242D26952695269530E08091620190E096
:1014E000840D911D0197AC0112F4495F5F4F559532
:1014F000479555954795559547952417350709F410
:1015000045C08FE3861508F441C0662D852D0E94E5
:10151000C207A80CB11C81E0A81AB10800E029C0DC
:10152000CCE5D1E0F98018816F2D812F0E948106D2
:10153000EB81FC81EA0DFB1D449128E030E0291984
:10154000310950E002C0559547952A95E2F7482B9E
:101550009885913009F4482BCCE5D1E081E0810FEA
:1015600088836F2D812F0E9473068F81A80EB11C76
:101570000F5F0715A8F280916401811107C0ECE5A7
:10158000F1E040E0618180810E947306852D870D26
:10159000642D8F5F0E94C207DF91CF911F910F9141
:1015A000FF90EF90DF90CF90BF90AF909F908F9083
:1015B0007F906F905F904F900895CF93DF93EC01F1
:1015C0000DC0ECE5F1E09081258130E0290F311D5F
:1015D0002038310534F421960E94CC09888181118C
:1015E000F0CFDF91CF9108950F931F93CF93DF93A7
:1015F000CDB7DEB72C970FB6F894DEBF0FBECDBFC8
:10160000611571058105910521F480E30E94CC09E3
:1016100014C061157105810520E8920771F08E01F3
:101620000F5F1F4F2CE0F80111922A95E9F7A801EE
:101630000E948F06C8010E94DD0A2C960FB6F8940E
:10164000DEBF0FBECDBFDF91CF911F910F910895E7
:1016500087B1806187B987B1806287B988B18061BD
:1016600088B988B1806288B91092B90088E4809303
:10167000B80084E08093BC0008958091B900887F11
:10168000089584EA8093BC008091BC008823E4F72D
:101690000E943D0B089585ED8093BC008091BC00B5
:1016A00084FDFCCF08958093BB0084E88093BC0048
:1016B0008091BC008823E4F70E943D0B08955058A8
:1016C000BB27AA270E94770B0C94C10C0E94B30C75
:1016D00038F00E94BA0C20F039F49F3F19F426F438
:1016E0000C94B00C0EF4E095E7FB0C94AA0CE92FD7
:1016F0000E94D20C58F3BA17620773078407950744
:1017000020F079F4A6F50C94F40C0EF4E0950B2E71
:10171000BA2FA02D0B01B90190010C01CA01A00143
:101720001124FF27591B99F0593F50F4503E68F19E
:101730001A16F040A22F232F342F4427585FF3CFDF
:10174000469537952795A795F0405395C9F77EF4B0
:101750001F16BA0B620B730B840BBAF09150A1F0F9
:10176000FF0FBB1F661F771F881FC2F70EC0BA0F7F
:10177000621F731F841F48F4879577956795B79507
:10178000F7959E3F08F0B0CF9395880F08F0992702
:10179000EE0F9795879508950E94E00B0C94C10C6D
:1017A0000E94BA0C58F00E94B30C40F029F45F3F3D
:1017B00029F00C94AA0C51110C94F50C0C94B00C5B
:1017C0000E94D20C68F39923B1F3552391F3951B32
:1017D000550BBB27AA2762177307840738F09F5F52
:1017E0005F4F220F331F441FAA1FA9F335D00E2EBF
:1017F0003AF0E0E832D091505040E695001CCAF72C
:101800002BD0FE2F29D0660F771F881FBB1F2617EE
:1018100037074807AB07B0E809F0BB0B802DBF01C5
:10182000FF2793585F4F3AF09E3F510578F00C9494
:10183000AA0C0C94F50C5F3FE4F3983ED4F3869524
:1018400077956795B795F7959F5FC9F7880F911DB5
:101850009695879597F90895E1E0660F771F881FA1
:10186000BB1F621773078407BA0720F0621B730B54
:10187000840BBA0BEE1F88F7E09508950E94DA0CEE
:1018800088F09F5798F0B92F9927B751B0F0E1F041
:10189000660F771F881F991F1AF0BA95C9F714C0F1
:1018A000B13091F00E94F40CB1E008950C94F40C66
:1018B000672F782F8827B85F39F0B93FCCF386952A
:1018C00077956795B395D9F73EF490958095709587
:1018D00061957F4F8F4F9F4F0895E89409C097FB04
:1018E0003EF490958095709561957F4F8F4F9F4FF7
:1018F0009923A9F0F92F96E9BB279395F69587953B
:1019000077956795B795F111F8CFFAF4BB0F11F4FD
:1019100060FF1BC06F5F7F4F8F4F9F4F16C08823A4
:1019200011F096E911C0772321F09EE8872F762FDA
:1019300005C0662371F096E8862F70E060E02AF01B
:101940009A95660F771F881FDAF7880F9695879507
:1019500097F9089597F99F6780E870E060E008952F
:101960009FEF80EC089500240A94161617061806B7
:101970000906089500240A94121613061406050693
:101980000895092E0394000C11F4882352F0BB0F24
:1019900040F4BF2B11F460FF04C06F5F7F4F8F4F87
:1019A0009F4F089557FD9058440F551F59F05F3FC2
:1019B00071F04795880F97FB991F61F09F3F79F071
:1019C00087950895121613061406551FF2CF4695F3
:1019D000F1DF08C0161617061806991FF1CF869575
:1019E0007105610508940895E894BB276627772759
:1019F000CB0197F908950E940E0D0C94C10C0E9422
:101A0000B30C38F00E94BA0C20F0952311F00C941E
:101A1000AA0C0C94B00C11240C94F50C0E94D20C5E
:101A200070F3959FC1F3950F50E0551F629FF00131
:101A3000729FBB27F00DB11D639FAA27F00DB11D4A
:101A4000AA1F649F6627B00DA11D661F829F2227D3
:101A5000B00DA11D621F739FB00DA11D621F839F5A
:101A6000A00D611D221F749F3327A00D611D231F30
:101A7000849F600D211D822F762F6A2F11249F577E
:101A800050409AF0F1F088234AF0EE0FFF1FBB1F81
:101A9000661F771F881F91505040A9F79E3F510540
:101AA00080F00C94AA0C0C94F50C5F3FE4F3983E84
:101AB000D4F3869577956795B795F795E7959F5FEA
:101AC000C1F7FE2B880F911D9695879597F908957C
:101AD000A1E21A2EAA1BBB1BFD010DC0AA1FBB1F32
:101AE000EE1FFF1FA217B307E407F50720F0A21BA4
:101AF000B30BE40BF50B661F771F881F991F1A9411
:101B000069F760957095809590959B01AC01BD013A
:101B1000CF010895052E97FB1EF400940E94A10D9D
:101B200057FD07D00E94680D07FC03D04EF40C94BB
:101B3000A10D50954095309521953F4F4F4F5F4FE8
:101B4000089590958095709561957F4F8F4F9F4F29
:101B50000895A29FB001B39FC001A39F700D811D86
:101B60001124911DB29F700D811D1124911D0895A6
:101B70000E94A90DA59F900DB49F900DA49F800D6C
:101B8000911D11240895FC0188279927E89421913B
:101B90002032E9F3293010F02E30C8F32B3241F017
:101BA0002D3239F4689404C00E94F70D820F911D04
:101BB000219120532A30C0F31EF4909581959F4FB8
:101BC00008954532510520F4423010F00C94EC0D8C
:101BD000FB011082CB010895BB274A3031F49923D1
:101BE00022F4BDE2909581959F4F0C94000E7AE00F
:101BF000979F902D879F802D910D11240895BB27CD
:101C0000FB015527AA27880F991FAA1FA41710F0B8
:101C1000A41B83955051B9F7A05DAA3308F0A95DC4
:101C2000A193009779F7B111B1931192CB010C9464
:101C3000190EDC01FC01672F71917723E1F73297D0
:101C400004C07C916D9370836291AE17BF07C8F397
:101C50000895F999FECF92BD81BDF89A992780B574
:101C60000895262FF999FECF1FBA92BD81BD20BDE0
:101C70000FB6F894FA9AF99A0FBE01960895F8945F
:021C8000FFCF94
:101C820041004C41534420436172002072706D0048
:101C9200536F6E61723A2000636D00442E20506EC5
:0E1CA20065753A20006B6D0020250020430080
:00000001FF
