:100000000C9454010C9490020C9471010C947101A5
:100010000C9471010C946E030C9471010C94710199
:100020000C9471010C9471010C9412020C947101E6
:100030000C9471010C9403020C94A6010C947101B0
:100040000C9471010C9471010C94C0030C94710117
:100050000C9471010C9471010C9471010C94710158
:100060000C9471010C947101050000000000050062
:10007000005F000005000700070005147F147F14CF
:1000800005242A7F2A12052313086462053649567F
:10009000205005080703000005001C224100050050
:1000A00041221C000514083E08140508083E0808F3
:1000B0000500B07000000508080808080500606029
:1000C0000000052010080402053E5149453E050088
:1000D000427F4000057249494946052141494D3357
:1000E000051814127F10052745454539053C4A4936
:1000F0004931054121110907053649494936054667
:100100004949291E05000014000005004034000084
:100110000508142241000514141414140541221476
:100120000800050201590906053E415D594E057C4E
:100130001211127C057F49494936053E4141412251
:10014000057F4141413E057F49494949057F0909EC
:100150000909053E41415173057F0808087F0500E4
:10016000417F4100052040413F01057F08142241A5
:10017000057F40404040057F020C027F057F040858
:10018000107F053E4141413E057F09090906053EB4
:100190004151215E057F0919294605264949493201
:1001A0000501017F0101053F4040403F051F204000
:1001B000201F053F4038403F0563140814630503C2
:1001C0000478040305615149454305007F4141001E
:1001D000050204081020050041417F0005040201CA
:1001E000020405404040404005070B000000052088
:1001F00054547840057F2844443805384444442802
:1002000005384444287F0538545454180500087EA6
:1002100009020518A4A49C78057F08040478050049
:10022000447D4000052040403D00057F10284400EB
:100230000500417F4000057C04780478057C0804B3
:10024000047805384444443805FC1824241805185B
:10025000242418FC057C080404080548545454243C
:100260000504043F4424053C4040207C051C2040FC
:10027000201C053C4030403C054428102844054CD7
:100280009090907C054464544C440500083641002D
:10029000050000770000050041360800050402044F
:1002A000080405007F417F0011241FBECFEFD8E076
:1002B000DEBFCDBF11E0A0E0B1E0E8EFFDE102C09C
:1002C00005900D92AE32B107D9F725E0AEE2B1E06C
:1002D00001C01D92AB38B207E1F70E9429060C94C9
:1002E000FA0E0C94000084B18E6F84B98AB1827CBE
:1002F0008AB98DE38BB9E9E6F0E082E8808381E09A
:100300008DBB94E09093680081E380936D008081C1
:100310008268808382E084BD23E025BD29EF27BD6C
:1003200080936E0087EE80937A0010927B0010928B
:100330007E0083E28093B0009093B10084E48093C8
:10034000810081E280936F00789408951F920F924C
:100350000FB60F921124CF92DF92EF92FF922F935C
:100360003F934F935F936F937F938F939F93AF933D
:10037000BF93EF93FF93C0906501D0906601E0902A
:100380006701F09068018FEFC81AD80AE80AF80AE6
:10039000C0926501D0926601E0926701F092680117
:1003A000C701B60125E030E040E050E00E94230E96
:1003B000672B682B692B19F481E080938101C701B9
:1003C000B60124EF31E040E050E00E94230E672B9D
:1003D000682B692B19F481E080938001FF91EF91E4
:1003E000BF91AF919F918F917F916F915F914F914D
:1003F0003F912F91FF90EF90DF90CF900F900FBE25
:100400000F901F9018951F920F920FB60F92112404
:100410008F9381E080937F018F910F900FBE0F909B
:100420001F9018951F920F920FB60F9211242F93C1
:100430003F934F935F936F937F938F939F93AF936C
:10044000BF93EF93FF938091810086FF0FC080914F
:10045000860090918700A0E0B0E080936D019093BA
:100460006E01A0936F01B09370012AC08091860045
:1004700090918700A0E0B0E040916D0150916E0135
:1004800060916F0170917001841B950BA60BB70BE7
:10049000880F991FAA1FBB1F880F991FAA1FBB1F78
:1004A000880F991FAA1FBB1F880F991FAA1FBB1F68
:1004B0008093690190936A01A0936B01B0936C01E2
:1004C000E1E8F0E0908180E48927808380917F01DA
:1004D000811113C06091690170916A0180916B0173
:1004E00090916C012AE330E040E050E00E94230E3E
:1004F000309378012093770102C010927F01FF9121
:10050000EF91BF91AF919F918F917F916F915F918B
:100510004F913F912F910F900FBE0F901F90189504
:100520001F920F920FB60F921124CF92DF92EF928B
:10053000FF922F933F934F935F936F937F938F938C
:100540009F93AF93BF93EF93FF93809134018530D6
:10055000B9F58091650190916601A0916701B09114
:10056000680120913001309131016C01C21AD30A27
:100570008093300190933101A0933201B093330105
:10058000E12CF12C60EE73E984E090E0A701960184
:100590000E94450E30937C0120937B012091000145
:1005A00030910101A5E3B2E00E94640EA70196011B
:1005B0000E94230E30937E0120937D01109234011E
:1005C00080917D0190917E01459710F18091770196
:1005D000909178018C329140D8F420916101309152
:1005E00062014091630150916401AFEFB0E00E945D
:1005F000730E26EF37E240E050E00E94230E209376
:100600005D0130935E0140935F01509360011AC019
:100610002091610130916201409163015091640128
:10062000AFEFB0E00E94730E2FEF33E040E050E0F8
:100630000E94230E20935D0130935E0140935F0181
:1006400050936001809134018F5F809334016091F9
:1006500000017091010180E090E00E94280D23E2EA
:1006600030E149E450E40E94B60D6B017C016091D9
:10067000590170915A0180915B0190915C010E9437
:10068000280DA70196010E941B0C0E94F90C609393
:10069000590170935A0180935B0190935C0120EAA9
:1006A00036E841E050E00E94230E30937A01209317
:1006B0007901FF91EF91BF91AF919F918F917F91C0
:1006C0006F915F914F913F912F91FF90EF90DF904D
:1006D000CF900F900FBE0F901F9018951F920F9202
:1006E0000FB60F9211248F939F934C990CC0809159
:1006F000000190910101883C910528F401969093A6
:100700000101809300014D990CC0809100019091EE
:1007100001018230910528F00197909301018093A7
:100720000001489914C0109201011092000110922A
:10073000590110925A0110925B0110925C011092C3
:1007400074011092730110927601109275019F91BD
:100750008F910F900FBE0F901F9018959093C5002A
:100760008093C40088E98093C1008EE08093C2002A
:1007700008959091C00095FFFCCF8093C600089526
:100780001F920F920FB60F9211241F932F933F9336
:100790004F935F936F937F938F939F93AF93BF9389
:1007A000CF93DF93EF93FF931091C6001C3681F433
:1007B0000AC0FE01EB5CFE4F108260E0CE010E9499
:1007C000EC0E219602C0C9E0D0E0CD30D1058CF30B
:1007D000143669F407C0CE010E94E40E0E94B903EA
:1007E000219602C0C9E0D0E0CD30D105A4F3FF913D
:1007F000EF91DF91CF91BF91AF919F918F917F91B9
:100800006F915F914F913F912F911F910F900FBE6C
:100810000F901F901895CF93AC01FB018081882326
:1008200009F499C080912F01813059F1823009F487
:1008300058C081118AC085B1817085B985B1806C3D
:1008400085B9C5B19A01ADECBCEC0E94640E9695D9
:10085000879596958795969587959C01220F331FCE
:10086000880F991F880F991F880F991F820F931F58
:100870009A01281B390BC9018F70880F8C2B85B901
:1008800064C085B1817085B985B1806A85B9C5B10B
:100890009A01ADECBCEC0E94640EAC0156954795F4
:1008A00056954795569547959A010E94640E9695E0
:1008B000879596958795969587959C01220F331F6E
:1008C000880F991F880F991F880F991F820F931FF8
:1008D0009A01281B390BC9018F70880F8C2B85B9A1
:1008E00034C085B1817085B985B1806685B9C5B1DF
:1008F0009A013695279536952795ABE7B4E10E9486
:10090000640EAC01569547959A01ADECBCEC0E9483
:10091000640E9695879596958795969587959C01F3
:10092000220F331F880F991F880F991F880F991F57
:10093000820F931F9A01281B390BC9018F70880FF2
:100940008C2B85B98FEF80932F0180912F018F5FC2
:1009500080932F011082CF9108958F929F92AF9232
:10096000BF92EF92FF920F931F93CF93DF939C015F
:10097000FA019081992309F487C0EA017B0189017A
:1009800090912E019130D1F018F0923071F176C033
:1009900080E480937C008091780090917900A0E0C1
:1009A000B0E08093610190936201A0936301B093E2
:1009B000640180915D018093B40060C081E4809304
:1009C0007C00609178007091790080E090E00E9456
:1009D000280D2DE032E348EC5DE30E94B60D0E9445
:1009E000F90CF8017183608349C082E480937C0034
:1009F00008E710E0F8016081718180E090E00E94DA
:100A0000280D2AE038E240EA5BE30E94B60D20E0C0
:100A100030E04AE754E40E94B60D4B015C01F80156
:100A20006081718180E090E00E94280D2AE038E228
:100A300040EA5BE30E94B60D9B01AC0160E070E010
:100A400080EA90E40E941A0C9B01AC01C501B4013C
:100A50000E94870C26E636E646E250E40E94B60D78
:100A600020E030E042E853E40E941A0C0E94F90CA6
:100A7000F701718360838FEF80932E0180912E01A7
:100A80008F5F80932E011882DF91CF911F910F917C
:100A9000FF90EF90BF90AF909F908F9008958F92AE
:100AA0009F92AF92BF92CF92DF92EF92FF920F93FD
:100AB0001F93CF93DF936C014B017A015901E80139
:100AC00041E851E063E771E085E791E00E94AD0401
:100AD0008881882309F4B0C00E94860820E048E09D
:100AE00065E088E690E00E94680A0E94580A0E9429
:100AF000540A62E083E00E947D0882E091E00E9457
:100B0000980B0FEF2AE042E361E081E00E94E609E2
:100B100060E182E00E947D08B40180E090E00E94E4
:100B2000AF0B8BE091E00E94980B6BE182E00E949A
:100B30007D0880E191E00E94980BB50180E090E093
:100B40000E94AF0B88E191E00E94980B68E282E07E
:100B50000E947D088BE191E00E94980BB60180E035
:100B600090E00E94AF0B88E191E00E94980B65E352
:100B700084E10E947D08B70180E090E00E94AF0B05
:100B800085E291E00E94980B2EE34AE362E38AE05B
:100B90000E94E60920E24DE762E08AE50E94E6094C
:100BA00068E08DE50E947D08609175017091760185
:100BB00080E090E00E94AF0B88E291E00E94980BE9
:100BC00065E18DE50E947D0860917301709174016B
:100BD00080E090E00E94AF0B8BE291E00E94980BC6
:100BE0002CE34DE763E28AE50E94E60928E349E742
:100BF00067E28EE50E94E6094F9907C06DE28AE63A
:100C00000E947D0880E50E94870A4F9B12C04E9982
:100C100007C06DE28AE60E947D0884E40E94870A8C
:100C20004E9B07C06DE28AE60E947D0885E40E9423
:100C3000870A18820E944F08DF91CF911F910F9170
:100C4000FF90EF90DF90CF90BF90AF909F908F90EC
:100C5000089587E690E00E94AE030E947301C0E011
:100C6000D0E010C0CE010E94E40EFE01E95BFE4F11
:100C7000808387E491E00E947E0E9093010180932F
:100C800000012196C430D1056CF3C4E0D0E013C05C
:100C90008E0104501109CE010E94E40EF801E95BB7
:100CA000FE4F808387E491E00E947E0E90937A014C
:100CB000809379012196C930D10554F3A09179012F
:100CC000B0917A0120EA36E841E050E00E94730ECC
:100CD0006093590170935A0180935B0190935C017A
:100CE000C9E0D0E013C08E0109501109CE010E9465
:100CF000E40EF801E95BFE4F808387E491E00E94F7
:100D00007E0E90937401809373012196CD30D105AE
:100D100054F3CDE0D0E013C08E010D501109CE0187
:100D20000E94E40EF801E95BFE4F808387E491E0C6
:100D30000E947E0E90937601809375012196C131B9
:100D4000D10554F361E871E080917D0190917E01BD
:100D50000E940B0420917701309178014091790134
:100D600050917A0160917B0170917C0100E811E063
:100D700080910001909101010E944F054AE050E0EE
:100D800065E371E080910001909101010E949C0E49
:100D9000C0E0D0E008C0FE01EB5CFE4F6081CE01F8
:100DA0000E94EC0E2196C430D105ACF34AE050E02D
:100DB00065E371E08091790190917A010E949C0E27
:100DC000C4E0D0E008C0FE01EF5CFE4F6081CE01C0
:100DD0000E94EC0E2196C930D105ACF380917301CD
:100DE0009091740120917101309172012817390797
:100DF000A0F44AE050E065E371E00E949C0EC9E077
:100E0000D0E008C0FE01E45DFE4F6081CE010E948B
:100E1000EC0E2196CD30D105ACF380917301909109
:100E2000740190937201809371014AE050E065E390
:100E300071E080917501909176010E949C0ECDE049
:100E4000D0E008C0FE01E85DFE4F6081CE010E9447
:100E5000EC0E2196C131D105ACF374CF6695669541
:100E60006695E82FF0E080E8689FE00DF11D112401
:100E7000E557FE4F40830895669566956695E82F81
:100E8000F0E080E8689FE00DF11D1124E557FE4F6A
:100E900080810895CF93DF93DC01CB01FA0120E339
:100EA0002287218720872783268325832483238302
:100EB000228321832083BB234CF4B095A095909589
:100EC00081959F4FAF4FBF4F31E008C030E006C063
:100ED0009A5CAA49BB4321812F5F218381152AECAB
:100EE00092072AE9A2072BE3B20794F706C0915EA6
:100EF000A54FB54022812F5F2283811521EE9207F5
:100F000025EFA20725E0B20794F707C0805896495D
:100F1000A849B10923812F5F2383803826E99207EE
:100F200028E9A207B10594F707C080549244AF4066
:100F3000B10924812F5F2483803422E492072FE0BB
:100F4000A207B10594F707C0805A9648A140B1099D
:100F500025812F5F2583803A26E8920721E0A207AA
:100F6000B10594F707C080519742A109B1092681C4
:100F70002F5F2683803127E29207A105B1059CF7F8
:100F800007C0885E9340A109B10927812F5F27839D
:100F9000883E23E09207A105B1059CF707C084565F
:100FA0009109A109B10920852F5F20878436910519
:100FB000A105B105A4F706C00A97A109B1092185C9
:100FC0002F5F21878A309105A105B105ACF706C0D6
:100FD0000197A109B10922852F5F228718161906EA
:100FE0001A061B06ACF320E001C02F5FDF01A20F41
:100FF000B11D8C918033C9F3332331F02150DF01CF
:10100000A20FB11D8DE28C934AE0421B30E00DC06F
:10101000832F90E0EF01C80FD91F820F911DDF01D0
:10102000A80FB91F8C9188833F5F431788F7E30FA0
:10103000F11D1082DF91CF9108950F931F93CF93ED
:10104000DF93C82F8B01D42F0E94FC0B88E70E94EE
:101050000E0C8C2F0E940E0CC0E007C0F801EC0FA4
:10106000F11D80810E940E0CCF5FCD17B8F30E9456
:10107000060CDF91CF911F910F910895CF93DF93CD
:101080001F92CDB7DEB7898341E0BE016F5F7F4F0E
:1010900080E00E941D080F90DF91CF910895CF93BB
:1010A00081E20E943E0880E00E943E088FE70E9495
:1010B0003E0882E20E943E0880E00E943E0887E0EF
:1010C0000E943E08C0E00BC080E1C89FB00111241F
:1010D00065577E4F40E180E40E941D08CF5FC03419
:1010E00098F3CF910895882314F080938201089596
:1010F000803410F4809383010895CF93C62F0E940B
:1011000073088C2F0E947808CF9108950E94E30BFA
:101110008EEA0E943E0885ED0E943E0880EF0E9404
:101120003E0888EA0E943E088FE30E943E0883ED55
:101130000E943E0880E00E943E088DE80E943E0822
:1011400084E10E943E0880E40E943E0880E20E9402
:101150003E0880E00E943E0881EA0E943E0888EC3A
:101160000E943E088AED0E943E0882E10E943E08ED
:1011700081E80E943E088FEF0E943E0889ED0E94A0
:101180003E0881EF0E943E088BED0E943E0880E2FF
:101190000E943E0884EA0E943E0886EA0E943E08B9
:1011A0008EE20E943E088FEA0E943E0860E080E0E6
:1011B0000E947D08E2E8F1E086EA828317821682C7
:1011C0001582118210820895FF920F931F93CF937F
:1011D000DF93C62F142F0E947D08E2E8F1E0F18032
:1011E000D0816F2D8D2F0E943C071F3F79F4C7706F
:1011F00001E010E020E030E004C0000F111F221FCA
:10120000331FCA95D2F7482F402B0FC0C77001E09B
:1012100010E020E030E004C0000F111F221F331F38
:10122000CA95D2F70095402F48236F2D8D2F0E942D
:101230002E07DF91CF911F910F91FF9008956F922C
:101240007F928F929F92AF92BF92CF92DF92EF9256
:10125000FF920F931F93CF93DF9388230CF4A7C0C3
:1012600044230CF4A4C0603408F0A1C0203408F07A
:101270009EC0261B99249394920E481BD1E0D40F54
:10128000962F9770162F191BE92CF12C28E030E0CF
:10129000291B3109E216F3067CF428E030E02E1910
:1012A0003F094FEF50E06A0102C0D594C7942A95D8
:1012B000E2F72C2DB92C04C028E0B22EB91A2FEF7A
:1012C000A82EC22ED12C02C0CC0CDD1C9A95E2F7C0
:1012D0006C2C612F0E947D08812C19C0E2E8F1E09E
:1012E0007180C081672D8C2F0E943C070F3F19F43D
:1012F000462D482B03C04C2D4095482381E08C0F90
:1013000080938201672D8C2F0E942E0783948D1667
:1013100028F316C088E0B80E185F612F8A2D0E944E
:101320007D08C0E00BC0E2E8F1E06181808191E0DE
:10133000980F9083402F0E942E07CF5FCD1798F310
:101340008B2D90E09C01285F3F4FE216F30614F7C7
:10135000B91468F5E81AF90A8FEF90E002C0880F17
:10136000991FEA94E2F7E82EE09468E0610F8A2D75
:101370000E947D0810E019C0E2E8F1E0F180C08130
:101380006F2D8C2F0E943C070F3F19F44E2D482BD8
:1013900003C04E2D4095482381E08C0F809382013D
:1013A0006F2D8C2F0E942E071F5F1D1728F3DF91D2
:1013B000CF911F910F91FF90EF90DF90CF90BF9052
:1013C000AF909F908F907F906F900895DF92EF92F3
:1013D000FF920F931F93CF93DF9388230CF445C0A4
:1013E00044230CF442C0603408F03FC02034E8F5D8
:1013F000D02F122FD42EF62EE82E481718F0042FD7
:10140000C82F09C0082FC42F06C04D2F6F2D8C2F59
:101410000E94E408CF5F0C17C0F7DE1418F00D2D02
:10142000CE2D09C00E2DCD2D06C04D2F612F8C2F36
:101430000E94E408CF5F0C17C0F71F1518F0212F8A
:101440006F2D02C02F2D612F0D2F4E2D8E2D0E943E
:101450001F091F1518F0212F6F2D02C02F2D612F8E
:101460000D2F4D2D8D2D0E941F09DF91CF911F91C2
:101470000F91FF90EF90DF9008951F93CF93DF932C
:10148000182FD0E00BC0412F6D2F8C2F0E942E07FC
:10149000CF5F01C0C0E0CC23B4F7D85FD034D0F325
:1014A000DF91CF911F91089580E00E943D0A089539
:1014B00080918401873A21F486EA8093840103C0F5
:1014C00087EA80938401809184010E943E080895F8
:1014D0006623E4F04034D0F42230C0F4E2E8F1E0D6
:1014E000948383836583468350E041505109CA0148
:1014F00099230CF4079695958795959587959595DD
:101500008795E2E8F1E08F5F8783208708954F9207
:101510005F926F927F928F929F92AF92BF92CF9283
:10152000DF92EF92FF920F931F93CF93DF93A2E886
:10153000B1E05C9011964C901197805215969C9159
:10154000159717962C911797929F900111242F5F52
:101550003F4F829FA001839F500D11241396ED9160
:10156000FC9114975A018FEFA81AB80AE40FF51FDF
:101570007490842D8770982E642C812C5FC0662D0A
:10158000852D0E947D087501E80CF11C670181E042
:10159000C81AD10810E041C0809185019091860160
:1015A000FC01EE0DFF1D2491492D50E030E0092C87
:1015B00002C0220F331F0A94E2F7022F8820A1F005
:1015C000FC01EC0DFD1DE49188E090E0841B950B7F
:1015D000F0E002C0F595E7958A95E2F70E2F022B11
:1015E00080918901C80ED11C80918A01813039F423
:1015F000E2E8F1E0618180810E943C07082BC2E8AB
:10160000D1E06981888191E0980F9883402F0E94F2
:101610002E078F81E80EF11C1F5F171508F4BCCF51
:1016200080918A01811107C0E2E8F1E040E0618128
:1016300080810E942E0788E0680E83948091890142
:10164000881608F49CCF242D26952695269530E003
:101650008091880190E0840D911D0197AC0112F4F6
:10166000495F5F4F559547955595479555954795D2
:101670002417350709F445C08FE3861508F441C0E7
:10168000662D852D0E947D08A80CB11C81E0A81A4A
:10169000B10800E029C0C2E8D1E0F98018816F2DBF
:1016A000812F0E943C07EB81FC81EA0DFB1D4491D8
:1016B00028E030E02919310950E002C055954795DE
:1016C0002A95E2F7482B9885913009F4482BC2E817
:1016D000D1E081E0810F88836F2D812F0E942E073A
:1016E0008F81A80EB11C0F5F0715A8F280918A01A7
:1016F000811107C0E2E8F1E040E0618180810E9451
:101700002E07852D870D642D8F5F0E947D08DF9148
:10171000CF911F910F91FF90EF90DF90CF90BF90EE
:10172000AF909F908F907F906F905F904F900895B3
:10173000CF93DF93EC010DC0E2E8F1E090812581C9
:1017400030E0290F311D2038310534F421960E94F4
:10175000870A88818111F0CFDF91CF9108950F938F
:101760001F93CF93DF93CDB7DEB72C970FB6F894C6
:10177000DEBF0FBECDBF611571058105910521F456
:1017800080E30E94870A14C061157105810520E875
:10179000920771F08E010F5F1F4F2CE0F80111923C
:1017A0002A95E9F7A8010E944A07C8010E94980BF0
:1017B0002C960FB6F894DEBF0FBECDBFDF91CF9150
:1017C0001F910F91089587B1806187B987B18062B9
:1017D00087B988B1806188B988B1806288B9109270
:1017E000B90088E48093B80084E08093BC00089539
:1017F0008091B900887F089584EA8093BC0080912D
:10180000BC008823E4F70E94F80B089585ED8093CF
:10181000BC008091BC0084FDFCCF08958093BB0088
:1018200084E88093BC008091BC008823E4F70E9488
:10183000F80B08955058BB27AA270E94320C0C942D
:101840007C0D0E946E0D38F00E94750D20F039F469
:101850009F3F19F426F40C946B0D0EF4E095E7FB12
:101860000C94650DE92F0E948D0D58F3BA1762078D
:1018700073078407950720F079F4A6F50C94AF0D53
:101880000EF4E0950B2EBA2FA02D0B01B90190019B
:101890000C01CA01A0011124FF27591B99F0593FDF
:1018A00050F4503E68F11A16F040A22F232F342F27
:1018B0004427585FF3CF469537952795A795F04075
:1018C0005395C9F77EF41F16BA0B620B730B840B8A
:1018D000BAF09150A1F0FF0FBB1F661F771F881F42
:1018E000C2F70EC0BA0F621F731F841F48F487959A
:1018F00077956795B795F7959E3F08F0B0CF93958C
:10190000880F08F09927EE0F9795879508950E9404
:101910009B0C0C947C0D0E94750D58F00E946E0D6E
:1019200040F029F45F3F29F00C94650D51110C949F
:10193000B00D0C946B0D0E948D0D68F39923B1F3DB
:10194000552391F3951B550BBB27AA2762177307E5
:10195000840738F09F5F5F4F220F331F441FAA1F79
:10196000A9F335D00E2E3AF0E0E832D09150504035
:10197000E695001CCAF72BD0FE2F29D0660F771FE3
:10198000881FBB1F261737074807AB07B0E809F0C9
:10199000BB0B802DBF01FF2793585F4F3AF09E3F4E
:1019A000510578F00C94650D0C94B00D5F3FE4F395
:1019B000983ED4F3869577956795B795F7959F5F91
:1019C000C9F7880F911D9695879597F90895E1E0DD
:1019D000660F771F881FBB1F621773078407BA073C
:1019E00020F0621B730B840BBA0BEE1F88F7E09597
:1019F00008950E94950D88F09F5798F0B92F992768
:101A0000B751B0F0E1F0660F771F881F991F1AF0E9
:101A1000BA95C9F714C0B13091F00E94AF0DB1E092
:101A200008950C94AF0D672F782F8827B85F39F091
:101A3000B93FCCF3869577956795B395D9F73EF482
:101A400090958095709561957F4F8F4F9F4F08952A
:101A5000E89409C097FB3EF4909580957095619548
:101A60007F4F8F4F9F4F9923A9F0F92F96E9BB27FE
:101A70009395F695879577956795B795F111F8CF7A
:101A8000FAF4BB0F11F460FF1BC06F5F7F4F8F4FE5
:101A90009F4F16C0882311F096E911C0772321F0DB
:101AA0009EE8872F762F05C0662371F096E8862F73
:101AB00070E060E02AF09A95660F771F881FDAF7CA
:101AC000880F9695879597F9089597F99F6780E80D
:101AD00070E060E008959FEF80EC089500240A9480
:101AE0001616170618060906089500240A941216F9
:101AF0001306140605060895092E0394000C11F42C
:101B0000882352F0BB0F40F4BF2B11F460FF04C0D8
:101B10006F5F7F4F8F4F9F4F089557FD9058440F31
:101B2000551F59F05F3F71F04795880F97FB991F3C
:101B300061F09F3F79F087950895121613061406F9
:101B4000551FF2CF4695F1DF08C016161706180686
:101B5000991FF1CF86957105610508940895E89461
:101B6000BB2766277727CB0197F908950E94C90DF7
:101B70000C947C0D0E946E0D38F00E94750D20F0C3
:101B8000952311F00C94650D0C946B0D11240C949D
:101B9000B00D0E948D0D70F3959FC1F3950F50E02D
:101BA000551F629FF001729FBB27F00DB11D639F0F
:101BB000AA27F00DB11DAA1F649F6627B00DA11DB5
:101BC000661F829F2227B00DA11D621F739FB00D5B
:101BD000A11D621F839FA00D611D221F749F3327CB
:101BE000A00D611D231F849F600D211D822F762F64
:101BF0006A2F11249F5750409AF0F1F088234AF041
:101C0000EE0FFF1FBB1F661F771F881F91505040AC
:101C1000A9F79E3F510580F00C94650D0C94B00D12
:101C20005F3FE4F3983ED4F3869577956795B79533
:101C3000F795E7959F5FC1F7FE2B880F911D96954D
:101C4000879597F90895A1E21A2EAA1BBB1BFD01E7
:101C50000DC0AA1FBB1FEE1FFF1FA217B307E4078B
:101C6000F50720F0A21BB30BE40BF50B661F771FE3
:101C7000881F991F1A9469F76095709580959095C3
:101C80009B01AC01BD01CF010895052E97FB1EF409
:101C900000940E945C0E57FD07D00E94230E07FCA3
:101CA00003D04EF40C945C0E5095409530952195E0
:101CB0003F4F4F4F5F4F0895909580957095619578
:101CC0007F4F8F4F9F4F0895A29FB001B39FC001D8
:101CD000A39F700D811D1124911DB29F700D811D58
:101CE0001124911D08950E94640EA59F900DB49F2C
:101CF000900DA49F800D911D11240895FC0188274B
:101D00009927E89421912032E9F3293010F02E3000
:101D1000C8F32B3241F02D3239F4689404C00E948C
:101D2000B20E820F911D219120532A30C0F31EF470
:101D3000909581959F4F08954532510520F442308A
:101D400010F00C94A70EFB011082CB010895BB2765
:101D50004A3031F4992322F4BDE2909581959F4F4A
:101D60000C94BB0E7AE0979F902D879F802D910D4C
:101D700011240895BB27FB015527AA27880F991F17
:101D8000AA1FA41710F0A41B83955051B9F7A05DAA
:101D9000AA3308F0A95DA193009779F7B111B19327
:101DA0001192CB010C94D40EDC01FC01672F7191D0
:101DB0007723E1F7329704C07C916D937083629131
:101DC000AE17BF07C8F30895F999FECF92BD81BD44
:101DD000F89A992780B50895262FF999FECF1FBA52
:101DE00092BD81BD20BD0FB6F894FA9AF99A0FBE44
:081DF00001960895F894FFCF5D
:101DF80041004C41534420436172002072706D00D1
:101E0800536F6E61723A2000636D00442E20506E4D
:0E1E180065753A20006B6D0020250020430008
:00000001FF
