:100000000C9424010C9441010C9441010C94410185
:100010000C9441010C9443010C9441010C94410156
:100020000C9441010C9441010C9441010C94410148
:100030000C9441010C9441010C9441010C94410138
:100040000C9441010C9441010C9441010C94410128
:100050000C9441010C9441010C9441010C94410118
:100060000C9441010C944101000000000000005F6D
:1000700000000007000700147F147F14242A7F2A41
:10008000122313086462364955225000050300000C
:10009000001C2241000041221C0014083E081408E4
:1000A000083E0808005030000008080808080060F2
:1000B00060000020100804023E5149453E00427F86
:1000C000400042615149462141454B311814127F8D
:1000D0001027454545393C4A494930017109050316
:1000E0003649494936064949291E0036360000007E
:1000F0005636000008142241001414141414004150
:100100002214080201510906324979413E7E11113B
:10011000117E7F494949363E414141227F4141227A
:100120001C7F494949417F090909013E4149497AF2
:100130007F0808087F00417F41002040413F017F48
:10014000081422417F404040407F020C027F7F0420
:1001500008107F3E4141413E7F090909063E415159
:10016000215E7F09192946464949493101017F012C
:10017000013F4040403F1F2040201F3F4038403F4C
:100180006314081463070870080761514945430068
:100190007F41410002040810200041417F00040219
:1001A0000102044040404040000102040020545439
:1001B00054787F48444438384444442038444448C0
:1001C0007F3854545418087E0901020C5252523E92
:1001D0007F0804047800447D40002040443D007FB7
:1001E0001028440000417F40007C041804787C08FB
:1001F00004047838444444387C1414140808141453
:10020000187C7C080404084854545420043F44409B
:10021000203C4040207C1C2040201C3C4030403C86
:1002200044281028440C5050503C4464544C440022
:100230000836410000007F00000041360800100829
:10024000081008000000000011241FBECFEFD8E006
:10025000DEBFCDBF11E0A0E0B1E0E0EBF6E002C010
:1002600005900D92A830B107D9F723E0A8E0B1E0DE
:1002700001C01D92A230B207E1F70E947C010C94EC
:1002800056030C9400001F920F920FB60F92112488
:100290002F933F934F935F936F937F938F939F938E
:1002A000AF93BF93EF93FF93489906C0609100010D
:1002B00080E090E00E944803499906C080E090E009
:1002C0000E944003809300014A9905C0809100017B
:1002D0008F5F80930001FF91EF91BF91AF919F914C
:1002E0008F917F916F915F914F913F912F910F90DF
:1002F0000FBE0F901F901895CF93DF9300D0CDB70E
:10030000DEB78AB1887F8AB987E08BB994E0909391
:10031000680080936D0078940E94E501809100014F
:1003200089831A820E943D0264E180E00E941603E4
:1003300061E081E091E00E94050362E0CE01019658
:100340000E9405030E941B032FEF83EC99E02150CC
:1003500080409040E1F700C00000E0CF98B1977F67
:1003600098B9662329F098B1946098B990E01FC0BD
:1003700098B19B7F98B9FACF47E050E0491B5109EB
:10038000282F30E002C0359527954A95E2F720FFE7
:1003900004C028B1226028B903C028B12D7F28B934
:1003A00028B1216028B928B12E7F28B99F5F9830E5
:1003B00018F388B1886088B9089560E00E94AE01A2
:1003C000089561E00E94AE010895CF93DF9387B155
:1003D000886087B987B1806187B987B1846087B940
:1003E00087B1826087B987B1816087B988B1806140
:1003F00088B988B1886088B983EC99E00197F1F7F2
:1004000000C0000088B18F7E88B98BE594E4019725
:10041000F1F700C0000088B1806188B988B1877F9A
:1004200088B981E20E94DD0183E10E94DD0186E05E
:100430000E94DD0182EC0E94DD0180E20E94DD016C
:1004400089E00E94DD0180E80E94DD0180E40E94D5
:10045000DD01C0E0D0E004C080E00E94E10121960F
:10046000C83F91E0D907C0F388E00E94DD018CE02D
:100470000E94DD01DF91CF91089580E80E94DD01A7
:1004800080E40E94DD01109200031092010380E0DD
:1004900090E005C0FC01E85FFE4F10820196883FA6
:1004A00021E09207B8F30895262F269526952695E4
:1004B00090E034E5239F800D911D1124442379F0B1
:1004C000677021E030E002C0220F331F6A95E2F727
:1004D000FC01E85FFE4F8081282B20830895677020
:1004E00021E030E002C0220F331F6A95E2F7FC01E1
:1004F000E85FFE4F20958081282320830895EF92A6
:10050000FF920F931F93CF93DF93E82EF62E00E018
:1005100045C02E2D30E020523109802F6F2D0E94D2
:100520003403F901EE0FFF1FEE0FFF1FE20FF31F61
:10053000E80FF11DE859FF4FE491812F0E94340329
:10054000F0E002C0F595E7958A95E2F7E0FF0AC072
:100550006091010380910003610F41E0800F0E94D0
:10056000540209C06091010380910003610F40E0D3
:10057000800F0E9454021F5F01C010E0212F30E065
:10058000CE01880F991F880F991F880F991F8C1B08
:100590009D0B281739070CF4BCCF0F5F202F30E0DC
:1005A000CF2DD0E0CE01880F991F880F991F8C0F97
:1005B0009D1F281739070CF3E0E0F3E08F2D880F1B
:1005C000880F8F0D9081890F8F5F8083843570F045
:1005D00010920003E1E0F3E08F2D880F880F880F61
:1005E000982F9F198081890F8F5F808380910103ED
:1005F000803320F01092000310920103DF91CF911D
:100600001F910F91FF90EF9008951F93CF93DF9369
:10061000EC01162F04C02196612F0E947F02888171
:100620008111F9CFDF91CF911F910895809300033D
:10063000609301030895CF93DF9380E80E94DD016A
:1006400080E40E94DD01C0E0D0E007C0FE01E85F69
:10065000FE4F80810E94E1012196C83F81E0D807CA
:10066000A8F3DF91CF910895991B79E004C0991FF9
:10067000961708F0961B881F7A95C9F780950895FC
:10068000F999FECF92BD81BDF89A992780B508955A
:10069000262FF999FECF1FBA92BD81BD20BD0FB69E
:1006A000F894FA9AF99A0FBE01960895F894FFCF3C
:0806B00030436F6E743A200024
:00000001FF
