:100000000C9434000C9448000C9465000C94460049
:100010000C9446000C9446000C9446000C94460048
:100020000C9446000C9446000C9446000C94460038
:100030000C9446000C9446000C9446000C94460028
:100040000C9446000C9446000C9446000C94460018
:100050000C9446000C9446000C9446000C94460008
:100060000C9446000C94460011241FBECFEFD8E03C
:10007000DEBFCDBF21E0A0E0B1E001C01D92A23003
:10008000B207E1F70E94E1000C9405010C94000016
:100090001F920F920FB60F9211242F938F939F935D
:1000A00080910001909101018C3221E0920728F4A7
:1000B0000A9690930101809300019F918F912F9157
:1000C0000F900FBE0F901F9018951F920F920FB6B2
:1000D0000F9211248F939F938091000190910101C1
:1000E000009729F00A9790930101809300019F9156
:1000F0008F910F900FBE0F901F901895AC0185B196
:1001000015B89A01ADECBCEC0E94F6009695879567
:1001100096958795969587959C01220F331F880F9A
:10012000991F880F991F880F991F820F931F9A019B
:10013000281B390BC901806685B98FE99FE00197BB
:10014000F1F700C000009A010E94F600FC01F6954C
:10015000E795F695E795F695E7959F010E94F600DD
:100160009695879596958795969587959C01220FEC
:10017000331F880F991F880F991F880F991F820FAF
:10018000931F9F01281B390BC901806585B98FE931
:100190009FE00197F1F700C000009A01369527957E
:1001A00036952795ABE7B4E10E94F60096958795C2
:1001B000806385B98FE99FE00197F1F700C00000E7
:1001C000089584B18FEF84B98AB1837F8AB98CE0B6
:1001D0008BB98AE08093690083E08DBB789480912D
:1001E0000001909101010E947E00F9CFA29FB00111
:1001F000B39FC001A39F700D811D1124911DB29F5B
:0E020000700D811D1124911D0895F894FFCFFB
:00000001FF
