S0100000737072696E745F312E73726563E4
S11300000C9434000C9449000C9449000C9449005D
S11300100C9449000C9449000C9449000C94490038
S11300200C9449000C9449000C9449000C94490028
S11300300C9449000C9449000C9449000C94490018
S11300400C9449000C9449000C9449000C94490008
S11300500C9449000C9449000C9449000C944900F8
S11300600C9449000C94490011241FBECFEFD8E032
S1130070DEBFCDBF11E0A0E0B1E0EAE3F1E002C0F1
S113008005900D92AA30B107D9F70E944B000C9449
S11300909B000C940000CF93DF93CDB7DEB72A9773
S11300A00FB6F894DEBF0FBECDBF8AE0E0E0F1E00A
S11300B0DE01119601900D928A95E1F783E087B9EC
S11300C08FE084B98BB181608BB98BB182608BB9BD
S11300D020E090E0489907C0233008F49F5F9A30ED
S11300E011F42F5F90E0499908C0911105C02223B3
S11300F019F021509AE001C091503FEF41EE84E0A5
S1130100315040408040E1F700C00000E1E0F0E001
S1130110EC0FFD1FE20FF11D808188B9E1E0F0E0F2
S1130120EC0FFD1FE90FF11D808185B93BB1898179
S10D0130832B8BB9CFCFF894FFCFD7
S10D013A000102030405060708098A
S9030000FC
