S0100000737072696E745F342E73726563E1
S11300000C9424010C9455030C9441010C9441016B
S11300100C9441010C9410040C9441010C94410182
S11300200C9441010C9441010C9441010C94410144
S11300300C9441010C9441010C94F8020C9441017C
S11300400C9441010C9441010C9441010C94410124
S11300500C9441010C943A040C9441010C94410118
S11300600C9441010C944101000000000000005F69
S113007000000007000700147F147F14242A7F2A3D
S11300801223130864623649552250000503000008
S1130090001C2241000041221C0014083E081408E0
S11300A0083E0808005030000008080808080060EE
S11300B060000020100804023E5149453E00427F82
S11300C0400042615149462141454B311814127F89
S11300D01027454545393C4A494930017109050312
S11300E03649494936064949291E0036360000007A
S11300F0563600000814224100141414141400414C
S11301002214080201510906324979413E7E111137
S1130110117E7F494949363E414141227F41412276
S11301201C7F494949417F090909013E4149497AEE
S11301307F0808087F00417F41002040413F017F44
S1130140081422417F404040407F020C027F7F041C
S113015008107F3E4141413E7F090909063E415155
S1130160215E7F09192946464949493101017F0128
S1130170013F4040403F1F2040201F3F4038403F48
S11301806314081463070870080761514945430064
S11301907F41410002040810200041417F00040215
S11301A00102044040404040000102040020545435
S11301B054787F48444438384444442038444448BC
S11301C07F3854545418087E0901020C5252523E8E
S11301D07F0804047800447D40002040443D007FB3
S11301E01028440000417F40007C041804787C08F7
S11301F004047838444444387C141414080814144F
S1130200187C7C080404084854545420043F444097
S1130210203C4040207C1C2040201C3C4030403C82
S113022044281028440C5050503C4464544C44001E
S11302300836410000007F00000041360800100825
S1130240081008000000000011241FBECFEFD8E002
S1130250DEBFCDBF11E0A0E0B1E0EAE8F6E102C004
S113026005900D92A233B107D9F723E0A2E3B1E0E0
S113027001C01D92AA34B207E1F70E94D3020C9484
S1130280430B0C94000084B18F6784B98AB1837CDA
S11302908AB98CE38BB9E9E6F0E082E0808391E0EF
S11302A09DBB24E02093680090E390936D009081BF
S11302B09260908384BD93E095BD99EF97BD809340
S11302C06E0085E480937C0087EE80937A00109220
S11302D07B0083E28093B0002093B100789408956A
S11302E0CF93AC01FB018081882309F496C08091EF
S11302F03701813051F1823009F456C0811187C031
S113030085B1807885B985B1806685B9C5B19A0112
S1130310ADECBCEC0E943F08969587959695879521
S1130320969587959C01220F331F880F991F880F7C
S1130330991F880F991F820F931F9A01281B390B4D
S1130340C9018F708C2B85B962C085B1807885B95D
S113035085B1806585B9C5B19A01ADECBCEC0E944C
S11303603F08AC0156954795569547955695479540
S11303709A010E943F08969587959695879596953C
S113038087959C01220F331F880F991F880F991F8F
S1130390880F991F820F931F9A01281B390BC901DB
S11303A08F708C2B85B933C085B1807885B985B1C0
S11303B0806385B9C5B19A013695279536952795F9
S11303C0ABE7B4E10E943F08AC01569547959A010A
S11303D0ADECBCEC0E943F08969587959695879561
S11303E0969587959C01220F331F880F991F880FBC
S11303F0991F880F991F820F931F9A01281B390B8D
S1130400C9018F708C2B85B98FEF80933701809150
S113041037018F5F809337011082CF9108954F92F7
S11304205F926F927F92AF92BF92CF92DF92EF92E0
S1130430FF920F931F93CF93DF93CDB7DEB76297ED
S11304400FB6F894DEBF0FBECDBFD801EC91EE23FA
S113045009F494C029013A01C72ED62E9F938F9395
S11304600F2EF2E0EF2EF1E0FF2EF02DFF92EF922F
S11304705E01BFE0AB0EB11CBF92AF920E9459085F
S1130480CF92DF92FF92EF926E01E9E0CE0ED11C83
S1130490DF92CF920E945908C301B2010E94C8069C
S11304A07F936F93FF92EF92CE0101967C019F930D
S11304B08F930E9459080E94DF0460E080E00E944C
S11304C0CB0561E085E091E00E94A70540E560E08E
S11304D08AE00E94B8056FE080E00E94CB0561E0ED
S11304E081E191E00E94A70561E0C5010E94A70592
S11304F069E180E00E94CB0561E08CE191E00E941B
S1130500A70561E0C6010E94A70563E288E20E9494
S1130510CB0562E0C7010E94A70561E082E291E099
S11305200E94A7050FB6F894DEBF0FBECDBF4F994A
S113053009C063E280E00E94CB0562E085E291E0BD
S11305400E94A7054F9B16C04E9909C063E280E044
S11305500E94CB0562E089E291E00E94A7054E9BD0
S113056009C063E280E00E94CB0562E08DE291E085
S11305700E94A7050E94D005F801108262960FB66A
S1130580F894DEBF0FBECDBFDF91CF911F910F91C5
S1130590FF90EF90DF90CF90BF90AF907F906F90DF
S11305A05F904F9008950E9443010E9487048091B8
S11305B03C018093B4006FE471E080914C01909110
S11305C04D010E9470012091380130913901409110
S11305D03A0150913B0160914A0170914B010EE444
S11305E011E080910001909101010E940F02DFCF80
S11305F01F920F920FB60F921124CF92DF92EF92B7
S1130600FF922F933F934F935F936F937F938F93B7
S11306109F93AF93BF93EF93FF93C0904401D09007
S11306204501E0904601F09047018FEFC81AD80ABF
S1130630E80AF80AC0924401D0924501E0924601CA
S1130640F0924701C701B60125E030E040E050E0F8
S11306500E94FE07672B682B692B19F481E08093B5
S11306604F01C701B60124EF31E040E050E00E94A1
S1130670FE07672B682B692B19F481E080934E01E8
S1130680FF91EF91BF91AF919F918F917F916F9166
S11306905F914F913F912F91FF90EF90DF90CF901A
S11306A00F900FBE0F901F9018951F920F920FB6C8
S11306B00F9211248F929F92AF92BF92CF92DF92AA
S11306C0EF92FF922F933F934F935F936F937F9398
S11306D08F939F93AF93BF93EF93FF9380913601D2
S11306E0853009F057C08090440190904501A09056
S11306F04601B09047018091320190913301640129
S1130700C81AD90AE12CF12C60EE73E984E090E078
S1130710A70196010E94200830934B0120934A01BF
S11307202091000130910101A5E3B2E00E943F084D
S1130730A70196010E94FE0730934D0120934C01BE
S11307408092320190923301A0923401B09235012B
S113075010923601209178003091790040E050E009
S1130760209340013093410140934201509343014F
S1130770AFEFB0E00E944E082EEF33E040E050E0CF
S11307800E94FE0720933C0130933D0140933E01BB
S113079050933F01809136018F5F809336016091C1
S11307A000017091010180E090E00E94F70623E2CD
S11307B030E149E450E40E94850720E030E543EC51
S11307C057E40E9456069B01AC0160913801709178
S11307D0390180913A0190913B010E94EA056093AE
S11307E038017093390180933A0190933B01FF9152
S11307F0EF91BF91AF919F918F917F916F915F9195
S11308004F913F912F91FF90EF90DF90CF90BF9049
S1130810AF909F908F900F900FBE0F901F901895E0
S11308201F920F920FB60F9211248F939F934C999E
S11308300CC08091000190910101883C910528F43D
S1130840019690930101809300014D990CC0809111
S11308500001909101018230910528F00197909355
S11308600101809300019F918F910F900FBE0F9013
S11308701F9018951F920F920FB60F9211248F9309
S11308809F9380917800909179009093490180938F
S113089048019F918F910F900FBE0F901F90189554
S11308A098B1977F98B9662329F098B1946098B964
S11308B090E01FC098B19B7F98B9FACF47E050E011
S11308C0491B5109282F30E002C0359527954A95D8
S11308D0E2F720FF04C028B1226028B903C028B180
S11308E02D7F28B928B1216028B928B12E7F28B9D5
S11308F09F5F983018F388B1886088B9089560E0E4
S11309000E945004089561E00E9450040895CF931A
S1130910DF9387B1886087B987B1806187B987B170
S1130920846087B987B1826087B987B1816087B9EC
S113093088B1806188B988B1886088B983EC99E00E
S11309400197F1F700C0000088B18F7E88B98BE56C
S113095094E40197F1F700C0000088B1806188B980
S113096088B1877F88B981E20E947F0483E10E9475
S11309707F0486E00E947F0482EC0E947F0480E270
S11309800E947F0489E00E947F0480E80E947F0423
S113099080E40E947F04C0E0D0E004C080E00E94B4
S11309A083042196C83F91E0D907C0F388E00E94F0
S11309B07F048CE00E947F04DF91CF91089580E84A
S11309C00E947F0480E40E947F04109248031092E6
S11309D0490380E090E005C0FC01E05BFE4F10821B
S11309E00196883F21E09207B8F30895262F2695B3
S11309F02695269590E034E5239F800D911D1124C2
S1130A00442379F0677021E030E002C0220F331FE5
S1130A106A95E2F7FC01E05BFE4F8081282B20837E
S1130A200895677021E030E002C0220F331F6A95F9
S1130A30E2F7FC01E05BFE4F2095808128232083B0
S1130A400895EF92FF920F931F93CF93DF93E82EB5
S1130A50F62E00E045C02E2D30E020523109802FC3
S1130A606F2D0E94F207F901EE0FFF1FEE0FFF1F1B
S1130A70E20FF31FE80FF11DE859FF4FE491812FB6
S1130A800E94F207F0E002C0F595E7958A95E2F737
S1130A90E0FF0AC06091490380914803610F41E07F
S1130AA0800F0E94F60409C06091490380914803B5
S1130AB0610F40E0800F0E94F6041F5F01C010E048
S1130AC0212F30E0CE01880F991F880F991F880FBE
S1130AD0991F8C1B9D0B281739070CF4BCCF0F5F93
S1130AE0202F30E0CF2DD0E0CE01880F991F880F42
S1130AF0991F8C0F9D1F281739070CF3E8E4F3E0C6
S1130B008F2D880F880F8F0D9081890F8F5F8083C1
S1130B10843570F010924803E9E4F3E08F2D880FD8
S1130B20880F880F982F9F198081890F8F5F80838A
S1130B3080914903803320F01092480310924903B6
S1130B40DF91CF911F910F91FF90EF9008951F9324
S1130B50CF93DF93EC01162F04C02196612F0E94DE
S1130B60210588818111F9CFDF91CF911F910895DB
S1130B701F93CF93DF93182FC62FD42F06C041E0C5
S1130B80612F8C2F0E94F604CF5FDC17C0F7DF9132
S1130B90CF911F910895809348036093490308956A
S1130BA0CF93DF9380E80E947F0480E40E947F0457
S1130BB0C0E0D0E007C0FE01E05BFE4F80810E94F0
S1130BC083042196C83F81E0D807A8F3DF91CF9131
S1130BD008955058BB27AA270E9401060C944B077E
S1130BE00E943D0738F00E94440720F039F49F3FEB
S1130BF019F426F40C943A070EF4E095E7FB0C94F0
S1130C003407E92F0E945C0758F3BA176207730789
S1130C108407950720F079F4A6F50C947E070EF46A
S1130C20E0950B2EBA2FA02D0B01B90190010C01F8
S1130C30CA01A0011124FF27591B99F0593F50F410
S1130C40503E68F11A16F040A22F232F342F442768
S1130C50585FF3CF469537952795A795F040539560
S1130C60C9F77EF41F16BA0B620B730B840BBAF030
S1130C709150A1F0FF0FBB1F661F771F881FC2F79B
S1130C800EC0BA0F621F731F841F48F487957795AF
S1130C906795B795F7959E3F08F0B0CF9395880F69
S1130CA008F09927EE0F9795879508950E946A0694
S1130CB00C944B070E94440758F00E943D0740F0F3
S1130CC029F45F3F29F00C94340751110C947F07E9
S1130CD00C943A070E945C0768F39923B1F35523F7
S1130CE091F3951B550BBB27AA276217730784073B
S1130CF038F09F5F5F4F220F331F441FAA1FA9F3D1
S1130D0035D00E2E3AF0E0E832D091505040E695BE
S1130D10001CCAF72BD0FE2F29D0660F771F881F1F
S1130D20BB1F261737074807AB07B0E809F0BB0B12
S1130D30802DBF01FF2793585F4F3AF09E3F510526
S1130D4078F00C9434070C947F075F3FE4F3983EEB
S1130D50D4F3869577956795B795F7959F5FC9F70F
S1130D60880F911D9695879597F90895E1E0660F90
S1130D70771F881FBB1F621773078407BA0720F009
S1130D80621B730B840BBA0BEE1F88F7E095089572
S1130D900E94640788F09F5798F0B92F9927B7519C
S1130DA0B0F0E1F0660F771F881F991F1AF0BA950B
S1130DB0C9F714C0B13091F00E947E07B1E00895E4
S1130DC00C947E07672F782F8827B85F39F0B93FD6
S1130DD0CCF3869577956795B395D9F73EF49095BE
S1130DE08095709561957F4F8F4F9F4F0895E8943C
S1130DF009C097FB3EF490958095709561957F4F5F
S1130E008F4F9F4F9923A9F0F92F96E9BB2793950C
S1130E10F695879577956795B795F111F8CFFAF41C
S1130E20BB0F11F460FF1BC06F5F7F4F8F4F9F4F4D
S1130E3016C0882311F096E911C0772321F09EE8AB
S1130E40872F762F05C0662371F096E8862F70E011
S1130E5060E02AF09A95660F771F881FDAF7880FEB
S1130E609695879597F9089597F99F6780E870E0BC
S1130E7060E008959FEF80EC089500240A9416160C
S1130E80170618060906089500240A941216130674
S1130E90140605060895092E0394000C11F4882302
S1130EA052F0BB0F40F4BF2B11F460FF04C06F5F1E
S1130EB07F4F8F4F9F4F089557FD9058440F551FF4
S1130EC059F05F3F71F04795880F97FB991F61F0C8
S1130ED09F3F79F087950895121613061406551F3F
S1130EE0F2CF4695F1DF08C0161617061806991FAB
S1130EF0F1CF86957105610508940895E894BB27A0
S1130F0066277727CB0197F908950E9498070C94D8
S1130F104B070E943D0738F00E94440720F09523B8
S1130F2011F00C9434070C943A0711240C947F07A5
S1130F300E945C0770F3959FC1F3950F50E0551F15
S1130F40629FF001729FBB27F00DB11D639FAA271A
S1130F50F00DB11DAA1F649F6627B00DA11D661F69
S1130F60829F2227B00DA11D621F739FB00DA11D8A
S1130F70621F839FA00D611D221F749F3327A00D44
S1130F80611D231F849F600D211D822F762F6A2FE0
S1130F9011249F5750409AF0F1F088234AF0EE0F45
S1130FA0FF1FBB1F661F771F881F91505040A9F772
S1130FB09E3F510580F00C9434070C947F075F3FEB
S1130FC0E4F3983ED4F3869577956795B795F795AE
S1130FD0E7959F5FC1F7FE2B880F911D9695879526
S1130FE097F90895991B79E004C0991F961708F0A2
S1130FF0961B881F7A95C9F780950895A1E21A2E49
S1131000AA1BBB1BFD010DC0AA1FBB1FEE1FFF1FA8
S1131010A217B307E407F50720F0A21BB30BE40BF8
S1131020F50B661F771F881F991F1A9469F760953F
S11310307095809590959B01AC01BD01CF010895F9
S1131040052E97FB1EF400940E94370857FD07D025
S11310500E94FE0707FC03D04EF40C943708509509
S11310604095309521953F4F4F4F5F4F0895909590
S11310708095709561957F4F8F4F9F4F0895A29FE4
S1131080B001B39FC001A39F700D811D1124911D58
S1131090B29F700D811D1124911D08950E943F0877
S11310A0A59F900DB49F900DA49F800D911D1124B8
S11310B00895AEE0B0E0EFE5F8E00C941A0B0D896A
S11310C01E8986E08C831A8309838FEF9FE79E83B2
S11310D08D83AE01475E5F4F6F89788DCE01019697
S11310E00E947B08EF81F885E00FF11F10822E9695
S11310F0E4E00C94360BABE0B0E0E1E8F8E00C94EB
S11311000C0B6C017B018A01FC011782168283811E
S113111081FFCCC1CE0101963C01F6019381F70118
S113112093FD859193FF81917F01882309F4BAC1CE
S1131130853239F493FD859193FF81917F01853246
S113114029F4B60190E00E94720AE7CF912C212C79
S1131150312CFFE1F315D8F08B3279F038F480327A
S113116079F08332A1F4232D20611DC08D3261F00A
S1131170803369F4232D216016C0832D8260382EBC
S1131180E32DE4603E2E2AC0F32DF8601DC037FC29
S11311902DC020ED280F2A3040F08E32B9F436FCF1
S11311A081C1232D2064322E19C036FE06C08AE088
S11311B0989E200D1124922E11C0EAE02E9E200D3F
S11311C01124222EF32DF0623F2E08C08C3621F418
S11311D0832D8068382E02C0883641F4F70193FDD0
S11311E0859193FF81917F018111B3CF982F9F7DCA
S11311F09554933028F40C5F1F4F9FE399830DC0DF
S1131200833631F0833771F0833509F059C021C03A
S1131210F801808189830E5F1F4F88248394912C69
S1131220530113C02801F2E04F0E511CF801A080B5
S1131230B18036FE03C0692D70E002C06FEF7FEF0E
S1131240C5010E94670A4C018201F32DFF773F2EEE
S113125016C0280122E0420E511CF801A080B18082
S113126036FE03C0692D70E002C06FEF7FEFC50149
S11312700E945C0A4C01F32DF0683F2E820133FC7E
S11312801BC0822D90E088169906B0F4B60180E266
S113129090E00E94720A2A94F4CFF50137FC8591FC
S11312A037FE81915F01B60190E00E94720A21101D
S11312B02A9421E0821A91088114910471F7E8C0FC
S11312C0843611F0893641F5F80137FE07C0608194
S11312D07181828193810C5F1F4F08C0608171818D
S11312E0072E000C880B990B0E5F1F4FF32DFF7612
S11312F03F2E97FF09C090958095709561957F4F1B
S11313008F4F9F4FF0683F2E2AE030E0A3010E94E8
S1131310AE0A882E861845C0853731F4232D2F7EDA
S1131320B22E2AE030E025C0932D997FB92E8F3656
S1131330C1F018F4883579F0B5C0803719F08837D2
S113134021F0B0C0E92FE061BE2EB4FE0DC0FB2D2C
S1131350F460BF2E09C034FE0AC0292F2660B22EC5
S113136006C028E030E005C020E130E002C020E102
S113137032E0F801B7FE07C06081718182819381F8
S11313800C5F1F4F06C06081718180E090E00E5FAA
S11313901F4FA3010E94AE0A882E8618FB2DFF77EB
S11313A03F2E36FE0DC0232D2E7FA22E891458F415
S11313B034FE0BC032FC09C0832D8E7EA82E05C0DE
S11313C0B82CA32C03C0B82C01C0B92CA4FE0FC0A8
S11313D0FE01E80DF11D8081803321F49A2D997E60
S11313E0A92E09C0A2FE06C0B394B39404C08A2DEA
S11313F0867809F0B394A3FC11C0A0FE06C0B21411
S113140088F4280C922C9B180EC0B21460F4B60118
S113141080E290E00E94720AB394F7CFB21418F4F9
S11314202B1802C0982C212CA4FE10C0B60180E316
S113143090E00E94720AA2FE17C0A1FC03C088E7D4
S113144090E002C088E590E0B6010CC08A2D867851
S113145059F0A1FE02C08BE201C080E2A7FC8DE23C
S1131460B60190E00E94720A891438F4B60180E350
S113147090E00E94720A9A94F7CF8A94F301E80DDF
S1131480F11D8081B60190E00E94720A8110F5CFAF
S1131490222009F442CEB60180E290E00E94720A52
S11314A02A94F6CFF6018681978102C08FEF9FEFD1
S11314B02B96E2E10C94280BFC01059061507040DE
S11314C00110D8F7809590958E0F9F1F0895FC0109
S11314D06150704001900110D8F7809590958E0F5F
S11314E09F1F08950F931F93CF93DF93FB012381D5
S11314F021FD03C08FEF9FEF2CC022FF16C0468151
S11315005781248135814217530744F4A081B18166
S11315109D012F5F3F4F318320838C932681378138
S11315202F5F3F4F3783268314C08B01EC01FB01EF
S11315300084F185E02D0995892BE1F6D8011696F2
S11315408D919C911797019617969C938E9316975D
S1131550CE01DF91CF911F910F910895FA01AA272F
S1131560283051F1203181F1E8946F936E7F6E5FE2
S11315707F4F8F4F9F4FAF4FB1E03ED0B4E03CD090
S1131580670F781F891F9A1FA11D680F791F8A1F73
S1131590911DA11D6A0F711D811D911DA11D20D0DA
S11315A009F468943F912AE0269F11243019305D94
S11315B03193DEF6CF010895462F4770405D419385
S11315C0B3E00FD0C9F7F6CF462F4F70405D4A33D2
S11315D018F0495D31FD4052419302D0A9F7EACF9A
S11315E0B4E0A6959795879577956795BA95C9F7C9
S11315F000976105710508959B01AC010A2E0694BC
S11316005795479537952795BA95C9F7620F731F74
S1131610841F951FA01D08952F923F924F925F92B1
S11316206F927F928F929F92AF92BF92CF92DF92EE
S1131630EF92FF920F931F93CF93DF93CDB7DEB753
S1131640CA1BDB0B0FB6F894DEBF0FBECDBF0994E7
S11316502A88398848885F846E847D848C849B843E
S1131660AA84B984C884DF80EE80FD800C811B814C
S1131670AA81B981CE0FD11D0FB6F894DEBF0FBE7B
S10D1680CDBFED010895F894FFCFEB
S113168A4100257500436F6D702E20426F72646F9E
S113169A004469616D28636D293A200052504D3A1D
S11316AA20004B6D005B505D005B445D005B525D46
S10516BA00002A
S9030000FC
