:100000000C9424010C9466020C9441010C9441015F
:100010000C9441010C9442030C9441010C94410155
:100020000C9441010C9441010C94E8010C944101A1
:100030000C9441010C94D9010C947C010C94410165
:100040000C9441010C9441010C9441010C94410128
:100050000C9441010C9441010C9441010C94410118
:100060000C9441010C944101000000000000005F6D
:1000700000000007000700147F147F14242A7F2A41
:10008000122313086462364955225000050300000C
:10009000001C2241000041221C0014083E081408E4
:1000A000083E0808005030000008080808080060F2
:1000B00060000020100804023E5149453E00427F86
:1000C000400042615149462141454B311814127F8D
:1000D0001027454545393C4A494930017109050316
:1000E0003649494936064949291E0036360000007E
:1000F0005636000008142241001414141414004150
:100100002214080201510906324979413E7E11113B
:10011000117E7F494949363E414141227F4141227A
:100120001C7F494949417F090909013E4149497AF2
:100130007F0808087F00417F41002040413F017F48
:10014000081422417F404040407F020C027F7F0420
:1001500008107F3E4141413E7F090909063E415159
:10016000215E7F09192946464949493101017F012C
:10017000013F4040403F1F2040201F3F4038403F4C
:100180006314081463070870080761514945430068
:100190007F41410002040810200041417F00040219
:1001A0000102044040404040000102040020545439
:1001B00054787F48444438384444442038444448C0
:1001C0007F3854545418087E0901020C5252523E92
:1001D0007F0804047800447D40002040443D007FB7
:1001E0001028440000417F40007C041804787C08FB
:1001F00004047838444444387C1414140808141453
:10020000187C7C080404084854545420043F44409B
:10021000203C4040207C1C2040201C3C4030403C86
:1002200044281028440C5050503C4464544C440022
:100230000836410000007F00000041360800100829
:10024000081008000000000011241FBECFEFD8E006
:10025000DEBFCDBF11E0A0E0B1E0E2E6F9E102C00F
:1002600005900D92A433B107D9F723E0A4E3B1E0E0
:1002700001C01D92A735B207E1F70E94FD040C945E
:10028000AF0C0C94000087B1806287B984B18E6F87
:1002900084B98AB1827C8AB98DE38BB9E9E6F0E052
:1002A00082E8808381E08DBB94E09093680081E3D5
:1002B00080936D0080818268808382E084BD23E02A
:1002C00025BD29EF27BD80936E0085E480937C00D7
:1002D00087EE80937A0010927B0010927E0083E27A
:1002E0008093B0009093B10084E48093810081E218
:1002F00080936F00789408951F920F920FB60F921B
:100300001124CF92DF92EF92FF922F933F934F935E
:100310005F936F937F938F939F93AF93BF93EF936D
:10032000FF93C0904601D0904701E0904801F090C3
:1003300049018FEFC81AD80AE80AF80AC0924601A4
:10034000D0924701E0924801F0924901C701B601FD
:1003500025E030E040E050E00E94EE08672B682B7B
:10036000692B19F481E080935C01C701B60124EF89
:1003700031E040E050E00E94EE08672B682B692BCB
:1003800019F481E080935B01FF91EF91BF91AF91F0
:100390009F918F917F916F915F914F913F912F919D
:1003A000FF90EF90DF90CF900F900FBE0F901F90B7
:1003B00018951F920F920FB60F9211248F9381E020
:1003C00080935A018F910F900FBE0F901F90189538
:1003D0001F920F920FB60F9211242F933F934F93BA
:1003E0005F936F937F938F939F93AF93BF93EF939D
:1003F000FF938091810086FF0FC0809186009091CD
:100400008700A0E0B0E080934E0190934F01A0934D
:100410005001B09351012AC08091860090918700CD
:10042000A0E0B0E040914E0150914F016091500129
:1004300070915101841B950BA60BB70B880F991F68
:10044000AA1FBB1F880F991FAA1FBB1F880F991FC8
:10045000AA1FBB1F880F991FAA1FBB1F80934A01A9
:1004600090934B01A0934C01B0934D01E1E8F0E073
:10047000908180E48927808380915A01811113C083
:1004800060914A0170914B0180914C0190914D0116
:100490002AE330E040E050E00E94EE083093530140
:1004A0002093520102C010925A01FF91EF91BF9127
:1004B000AF919F918F917F916F915F914F913F91FC
:1004C0002F910F900FBE0F901F9018951F920F92B3
:1004D0000FB60F921124CF92DF92EF92FF922F93DB
:1004E0003F934F935F936F937F938F939F93AF93BC
:1004F000BF93EF93FF9380913901853009F076C067
:100500008091460190914701A0914801B091490125
:1005100020913501309136016C01C21AD30A8093C3
:10052000350190933601A0933701B0933801E12C47
:10053000F12C60EE73E984E090E0A70196010E943F
:1005400010093093570120935601209100013091FA
:100550000101A5E3B2E00E942F09A70196010E94C4
:10056000EE08DA01C9013093590120935801109225
:10057000390140917800509179009A0140E050E0B3
:10058000209342013093430140934401509345012D
:100590004597D0F080915201909153018C32914057
:1005A00098F4AFEFB0E00E943E0926EF37E240E05A
:1005B00050E00E94EE0820933E0130933F014093AB
:1005C00040015093410112C0AFEFB0E00E943E09DC
:1005D0002FEF33E040E050E00E94EE0820933E0110
:1005E00030933F0140934001509341018091390184
:1005F0008F5F80933901609100017091010180E06B
:1006000090E00E94E70723E230E149E450E40E94D1
:1006100075086B017C0160913A0170913B018091FA
:100620003C0190913D010E94E707A70196010E94BD
:100630004C070E94B80760933A0170933B01809386
:100640003C0190933D0120EA36E841E050E00E94F1
:10065000EE083093550120935401FF91EF91BF9123
:10066000AF919F918F917F916F915F914F913F914A
:100670002F91FF90EF90DF90CF900F900FBE0F90D3
:100680001F9018951F920F920FB60F9211248F93FF
:100690009F934C990CC08091000190910101883C7E
:1006A000910528F4019690930101809300014D99E2
:1006B0000CC080910001909101018230910528F0D9
:1006C0000197909301018093000148990CC010920A
:1006D00001011092000110923A0110923B01109218
:1006E0003C0110923D019F918F910F900FBE0F9092
:1006F0001F901895CF93AC01FB018081882309F4EA
:1007000099C080913401813059F1823009F458C088
:1007100081118AC085B1817085B985B1806C85B938
:10072000C5B19A01ADECBCEC0E942F099695879556
:1007300096958795969587959C01220F331F880F74
:10074000991F880F991F880F991F820F931F9A0175
:10075000281B390BC9018F70880F8C2B85B964C099
:1007600085B1817085B985B1806A85B9C5B19A01B5
:10077000ADECBCEC0E942F09AC01569547955695FF
:100780004795569547959A010E942F09969587950A
:1007900096958795969587959C01220F331F880F14
:1007A000991F880F991F880F991F820F931F9A0115
:1007B000281B390BC9018F70880F8C2B85B934C069
:1007C00085B1817085B985B1806685B9C5B19A0159
:1007D0003695279536952795ABE7B4E10E942F090A
:1007E000AC01569547959A01ADECBCEC0E942F09DF
:1007F0009695879596958795969587959C01220F56
:10080000331F880F991F880F991F880F991F820F18
:10081000931F9A01281B390BC9018F70880F8C2BED
:1008200085B98FEF80933401809134018F5F80937D
:1008300034011082CF9108958F929F92AF92BF9210
:10084000CF92DF92EF92FF920F931F93CF93DF939C
:10085000CDB7DEB762970FB6F894DEBF0FBECDBF3F
:10086000F8018081882309F4B5C0780180910101E5
:100870008F93809100018F9302E011E01F930F93FB
:100880005E01FFE0AF0EB11CBF92AF920E949F09C4
:10089000809157018F93809156018F931F930F93EF
:1008A000CE0101964C019F938F930E949F098091E6
:1008B00055018F93809154018F931F930F936E0175
:1008C0009BE0C90ED11CDF92CF920E949F098091BC
:1008D00053018F93809152018F931F930F938E0139
:1008E000095F1F4F1F930F930E949F090E944106AB
:1008F00060E080E00E942D0761E085E091E00E94C9
:10090000090740E560E08AE00E941A076FE080E096
:100910000E942D0761E081E191E00E94090761E0FA
:10092000C5010E94090769E180E00E942D0761E08E
:100930008CE191E00E94090769E189E10E942D079D
:1009400061E0C4010E94090769E18CE30E942D0760
:1009500061E0C8010E94090761E082E291E00E9423
:10096000090763E288E20E942D0762E0C6010E9447
:10097000090761E085E291E00E9409070FB6F8944B
:10098000DEBF0FBECDBF4F9909C063E280E00E9479
:100990002D0762E088E291E00E9409074F9B16C094
:1009A0004E9909C063E280E00E942D0762E08CE26C
:1009B00091E00E9409074E9B09C063E280E00E941B
:1009C0002D0762E080E391E00E9409070E94320750
:1009D000F701108262960FB6F894DEBF0FBECDBF4E
:1009E000DF91CF911F910F91FF90EF90DF90CF900B
:1009F000BF90AF909F908F900895CF93DF93CDB726
:100A0000DEB760970FB6F894DEBF0FBECDBF0E9471
:100A100043010E94E90500E010E014C0C8010E94F3
:100A2000620CE1E0F0E0EC0FFD1FE00FF11F8083AE
:100A3000CE0101960E944909909301018093000123
:100A40000F5F1F4F043011054CF304E010E018C095
:100A5000780184E0E81AF108C8010E94620CE1E024
:100A6000F0E0EC0FFD1FEE0DFF1D8083CE0101961F
:100A70000E94490990935501809354010F5F1F4FC5
:100A8000093011052CF3A0915401B091550120EAD1
:100A900036E841E050E00E943E0960933A017093CD
:100AA0003B0180933C0190933D0180913E018093F6
:100AB000B4006CE571E080915801909159010E9459
:100AC0007A03209152013091530140915401509189
:100AD000550160915601709157010BE511E080912D
:100AE0000001909101010E941C044AE050E0BE0107
:100AF000675F7F4F80910001909101010E9467091B
:100B000000E010E00CC0E9E0F0E0EC0FFD1FE00FAA
:100B1000F11F6081C8010E946A0C0F5F1F4F0430F3
:100B200011058CF34AE050E0BE01675F7F4F809172
:100B30005401909155010E94670904E010E00EC035
:100B4000F801349789E090E08C0F9D1FE80FF91FA2
:100B50006081C8010E946A0C0F5F1F4F08301105A9
:100B60007CF3A3CF98B1977F98B9662329F098B109
:100B7000946098B990E01FC098B19B7F98B9FACF64
:100B800047E050E0491B5109282F30E002C035955D
:100B900027954A95E2F720FF04C028B1226028B9C2
:100BA00003C028B12D7F28B928B1216028B928B108
:100BB0002E7F28B99F5F983018F388B1886088B974
:100BC000089560E00E94B205089561E00E94B205B8
:100BD0000895CF93DF9387B1886087B987B180612B
:100BE00087B987B1846087B987B1826087B987B1D7
:100BF000816087B988B1806188B988B1886088B917
:100C000083EC99E00197F1F700C0000088B18F7E76
:100C100088B98BE594E40197F1F700C0000088B132
:100C2000806188B988B1877F88B981E20E94E10537
:100C300083E10E94E10586E00E94E10582EC0E94CA
:100C4000E10580E20E94E10589E00E94E10580E87B
:100C50000E94E10580E40E94E105C0E0D0E004C00C
:100C600080E00E94E5052196C83F91E0D907C0F3D6
:100C700088E00E94E1058CE00E94E105DF91CF91C0
:100C8000089580E80E94E10580E40E94E105109249
:100C900055031092560380E090E005C0FC01E35A32
:100CA000FE4F10820196883F21E09207B8F3089525
:100CB000262F26952695269590E034E5239F800DD6
:100CC000911D1124442379F0677021E030E002C0C7
:100CD000220F331F6A95E2F7FC01E35AFE4F808131
:100CE000282B20830895677021E030E002C0220F96
:100CF000331F6A95E2F7FC01E35AFE4F209580818D
:100D0000282320830895EF92FF920F931F93CF9390
:100D1000DF93E82EF62E00E045C02E2D30E0205265
:100D20003109802F6F2D0E94E208F901EE0FFF1F9D
:100D3000EE0FFF1FE20FF31FE80FF11DE859FF4F01
:100D4000E491812F0E94E208F0E002C0F595E7955A
:100D50008A95E2F7E0FF0AC060915603809155033F
:100D6000610F41E0800F0E94580609C06091560350
:100D700080915503610F40E0800F0E9458061F5F6D
:100D800001C010E0212F30E0CE01880F991F880F9D
:100D9000991F880F991F8C1B9D0B281739070CF47E
:100DA000BCCF0F5F202F30E0CF2DD0E0CE01880FD9
:100DB000991F880F991F8C0F9D1F281739070CF357
:100DC000E5E5F3E08F2D880F880F8F0D9081890F57
:100DD0008F5F8083843570F010925503E6E5F3E071
:100DE0008F2D880F880F880F982F9F198081890F6A
:100DF0008F5F808380915603803320F010925503DB
:100E000010925603DF91CF911F910F91FF90EF90B9
:100E100008951F93CF93DF93EC01162F04C0219602
:100E2000612F0E94830688818111F9CFDF91CF91D4
:100E30001F9108951F93CF93DF93182FC62FD42FA0
:100E400006C041E0612F8C2F0E945806CF5FDC174F
:100E5000C0F7DF91CF911F91089580935503609360
:100E600056030895CF93DF9380E80E94E10580E464
:100E70000E94E105C0E0D0E007C0FE01E35AFE4F4A
:100E800080810E94E5052196C83F81E0D807A8F33C
:100E9000DF91CF9108955058BB27AA270E9463077E
:100EA0000C943B080E942D0838F00E94340820F072
:100EB00039F49F3F19F426F40C942A080EF4E095B7
:100EC000E7FB0C942408E92F0E944C0858F3BA174A
:100ED000620773078407950720F079F4A6F50C9450
:100EE0006E080EF4E0950B2EBA2FA02D0B01B90160
:100EF00090010C01CA01A0011124FF27591B99F090
:100F0000593F50F4503E68F11A16F040A22F232F9B
:100F1000342F4427585FF3CF469537952795A795EB
:100F2000F0405395C9F77EF41F16BA0B620B730B92
:100F3000840BBAF09150A1F0FF0FBB1F661F771F03
:100F4000881FC2F70EC0BA0F621F731F841F48F4B8
:100F5000879577956795B795F7959E3F08F0B0CF41
:100F60009395880F08F09927EE0F97958795089528
:100F70000E94540888F09F5798F0B92F9927B751CD
:100F8000B0F0E1F0660F771F881F991F1AF0BA952D
:100F9000C9F714C0B13091F00E946E08B1E0089515
:100FA0000C946E08672F782F8827B85F39F0B93F07
:100FB000CCF3869577956795B395D9F73EF49095E0
:100FC0008095709561957F4F8F4F9F4F0895E8945E
:100FD00009C097FB3EF490958095709561957F4F81
:100FE0008F4F9F4F9923A9F0F92F96E9BB2793952F
:100FF000F695879577956795B795F111F8CFFAF43F
:10100000BB0F11F460FF1BC06F5F7F4F8F4F9F4F6F
:1010100016C0882311F096E911C0772321F09EE8CD
:10102000872F762F05C0662371F096E8862F70E033
:1010300060E02AF09A95660F771F881FDAF7880F0D
:101040009695879597F9089597F99F6780E870E0DE
:1010500060E008959FEF80EC089500240A9416162E
:10106000170618060906089500240A941216130696
:10107000140605060895092E0394000C11F4882324
:1010800052F0BB0F40F4BF2B11F460FF04C06F5F40
:101090007F4F8F4F9F4F089557FD9058440F551F16
:1010A00059F05F3F71F04795880F97FB991F61F0EA
:1010B0009F3F79F087950895121613061406551F61
:1010C000F2CF4695F1DF08C0161617061806991FCD
:1010D000F1CF86957105610508940895E894BB27C2
:1010E00066277727CB0197F908950E9488080C940A
:1010F0003B080E942D0838F00E94340820F0952308
:1011000011F00C9424080C942A0811240C946F08F4
:101110000E944C0870F3959FC1F3950F50E0551F46
:10112000629FF001729FBB27F00DB11D639FAA273C
:10113000F00DB11DAA1F649F6627B00DA11D661F8B
:10114000829F2227B00DA11D621F739FB00DA11DAC
:10115000621F839FA00D611D221F749F3327A00D66
:10116000611D231F849F600D211D822F762F6A2F02
:1011700011249F5750409AF0F1F088234AF0EE0F67
:10118000FF1FBB1F661F771F881F91505040A9F794
:101190009E3F510580F00C9424080C946F085F3F2B
:1011A000E4F3983ED4F3869577956795B795F795D0
:1011B000E7959F5FC1F7FE2B880F911D9695879548
:1011C00097F90895991B79E004C0991F961708F0C4
:1011D000961B881F7A95C9F780950895A1E21A2E6B
:1011E000AA1BBB1BFD010DC0AA1FBB1FEE1FFF1FCB
:1011F000A217B307E407F50720F0A21BB30BE40B1B
:10120000F50B661F771F881F991F1A9469F7609561
:101210007095809590959B01AC01BD01CF0108951B
:10122000052E97FB1EF400940E94270957FD07D056
:101230000E94EE0807FC03D04EF40C942709509549
:101240004095309521953F4F4F4F5F4F08959095B2
:101250008095709561957F4F8F4F9F4F0895A29F06
:10126000B001B39FC001A39F700D811D1124911D7A
:10127000B29F700D811D1124911D08950E942F09A8
:10128000A59F900DB49F900DA49F800D911D1124DA
:101290000895FC0188279927E89421912032E9F3E9
:1012A000293010F02E30C8F32B3241F02D3239F4B2
:1012B000689404C00E947D09820F911D21912053E2
:1012C0002A30C0F31EF4909581959F4F08954532C2
:1012D000510520F4423010F00C947209FB01108289
:1012E000CB010895BB274A3031F4992322F4BDE2A3
:1012F000909581959F4F0C9486097AE0979F902D49
:10130000879F802D910D11240895BB27FB01552740
:10131000AA27880F991FAA1FA41710F0A41B839552
:101320005051B9F7A05DAA3308F0A95DA1930097C9
:1013300079F7B111B1931192CB010C94B80BAEE0D7
:10134000B0E0E5EAF9E00C94860C0D891E8986E090
:101350008C831A8309838FEF9FE79E838D83AE0171
:10136000475E5F4F6F89788DCE0101960E94C1095B
:10137000EF81F885E00FF11F10822E96E4E00C94C7
:10138000A20CABE0B0E0E7ECF9E00C94780C6C0157
:101390007B018A01FC0117821682838181FFCCC107
:1013A000CE0101963C01F6019381F70193FD8591F1
:1013B00093FF81917F01882309F4BAC1853239F402
:1013C00093FD859193FF81917F01853229F4B601C8
:1013D00090E00E94C80BE7CF912C212C312CFFE12B
:1013E000F315D8F08B3279F038F4803279F083320B
:1013F000A1F4232D20611DC08D3261F0803369F48A
:10140000232D216016C0832D8260382EE32DE460E9
:101410003E2E2AC0F32DF8601DC037FC2DC020EDF4
:10142000280F2A3040F08E32B9F436FC81C1232DCA
:101430002064322E19C036FE06C08AE0989E200D28
:101440001124922E11C0EAE02E9E200D1124222E8E
:10145000F32DF0623F2E08C08C3621F4832D806876
:10146000382E02C0883641F4F70193FD859193FF31
:1014700081917F018111B3CF982F9F7D9554933037
:1014800028F40C5F1F4F9FE399830DC0833631F022
:10149000833771F0833509F059C021C0F80180818C
:1014A00089830E5F1F4F88248394912C530113C0AE
:1014B0002801F2E04F0E511CF801A080B18036FEE9
:1014C00003C0692D70E002C06FEF7FEFC5010E947D
:1014D000AD0B4C018201F32DFF773F2E16C0280182
:1014E00022E0420E511CF801A080B18036FE03C0FC
:1014F000692D70E002C06FEF7FEFC5010E94A20B63
:101500004C01F32DF0683F2E820133FC1BC0822D6D
:1015100090E088169906B0F4B60180E290E00E944F
:10152000C80B2A94F4CFF50137FC859137FE8191E1
:101530005F01B60190E00E94C80B21102A9421E0BF
:10154000821A91088114910471F7E8C0843611F071
:10155000893641F5F80137FE07C0608171818281CB
:1015600093810C5F1F4F08C060817181072E000CB2
:10157000880B990B0E5F1F4FF32DFF763F2E97FFC1
:1015800009C090958095709561957F4F8F4F9F4FC3
:10159000F0683F2E2AE030E0A3010E94040C882E60
:1015A000861845C0853731F4232D2F7EB22E2AE0D0
:1015B00030E025C0932D997FB92E8F36C1F018F4F5
:1015C000883579F0B5C0803719F0883721F0B0C080
:1015D000E92FE061BE2EB4FE0DC0FB2DF460BF2EDE
:1015E00009C034FE0AC0292F2660B22E06C028E0AA
:1015F00030E005C020E130E002C020E132E0F80137
:10160000B7FE07C060817181828193810C5F1F4F9B
:1016100006C06081718180E090E00E5F1F4FA301E2
:101620000E94040C882E8618FB2DFF773F2E36FE75
:101630000DC0232D2E7FA22E891458F434FE0BC02A
:1016400032FC09C0832D8E7EA82E05C0B82CA32C99
:1016500003C0B82C01C0B92CA4FE0FC0FE01E80DD8
:10166000F11D8081803321F49A2D997EA92E09C025
:10167000A2FE06C0B394B39404C08A2D867809F004
:10168000B394A3FC11C0A0FE06C0B21488F4280CC9
:10169000922C9B180EC0B21460F4B60180E290E068
:1016A0000E94C80BB394F7CFB21418F42B1802C0E1
:1016B000982C212CA4FE10C0B60180E390E00E947B
:1016C000C80BA2FE17C0A1FC03C088E790E002C0CF
:1016D00088E590E0B6010CC08A2D867859F0A1FE0D
:1016E00002C08BE201C080E2A7FC8DE2B60190E06F
:1016F0000E94C80B891438F4B60180E390E00E9480
:10170000C80B9A94F7CF8A94F301E80DF11D8081FC
:10171000B60190E00E94C80B8110F5CF222009F499
:1017200042CEB60180E290E00E94C80B2A94F6CF28
:10173000F6018681978102C08FEF9FEF2B96E2E141
:101740000C94940CFC010590615070400110D8F786
:10175000809590958E0F9F1F0895FC0161507040F9
:1017600001900110D8F7809590958E0F9F1F0895D6
:10177000DC01FC01672F71917723E1F7329704C0F8
:101780007C916D9370836291AE17BF07C8F3089583
:101790000F931F93CF93DF93FB01238121FD03C0A0
:1017A0008FEF9FEF2CC022FF16C046815781248106
:1017B00035814217530744F4A081B1819D012F5F09
:1017C0003F4F318320838C93268137812F5F3F4F9A
:1017D0003783268314C08B01EC01FB010084F18563
:1017E000E02D0995892BE1F6D80116968D919C91F3
:1017F0001797019617969C938E931697CE01DF91BB
:10180000CF911F910F910895FA01AA27283051F125
:10181000203181F1E8946F936E7F6E5F7F4F8F4F21
:101820009F4FAF4FB1E03ED0B4E03CD0670F781F80
:10183000891F9A1FA11D680F791F8A1F911DA11D65
:101840006A0F711D811D911DA11D20D009F468949E
:101850003F912AE0269F11243019305D3193DEF646
:10186000CF010895462F4770405D4193B3E00FD0FC
:10187000C9F7F6CF462F4F70405D4A3318F0495DE7
:1018800031FD4052419302D0A9F7EACFB4E0A695CA
:101890009795879577956795BA95C9F700976105EC
:1018A000710508959B01AC010A2E06945795479542
:1018B00037952795BA95C9F7620F731F841F951F37
:1018C000A01D0895F999FECF92BD81BDF89A992780
:1018D00080B50895262FF999FECF1FBA92BD81BD1C
:1018E00020BD0FB6F894FA9AF99A0FBE01960895A2
:1018F0002F923F924F925F926F927F928F929F9220
:10190000AF92BF92CF92DF92EF92FF920F931F930D
:10191000CF93DF93CDB7DEB7CA1BDB0B0FB6F894BE
:10192000DEBF0FBECDBF09942A88398848885F84FE
:101930006E847D848C849B84AA84B984C884DF806F
:10194000EE80FD800C811B81AA81B981CE0FD11D53
:101950000FB6F894DEBF0FBECDBFED010895F89429
:02196000FFCFB7
:101962004100257500436F6D702E20426F72646FC7
:10197200004469616D28636D293A200052504D3A46
:101982002000436D004B6D005B505D005B445D00C9
:041992005B525D0047
:00000001FF
