S0100000737072696E745F332E73726563E2
S11300000C9424010C941D030C9441010C944101A3
S11300100C9441010C94B7030C9441010C944101DC
S11300200C9441010C9441010C9441010C94410144
S11300300C9441010C9441010C94C0020C944101B4
S11300400C9441010C9441010C9441010C94410124
S11300500C9441010C9441010C9441010C94410114
S11300600C9441010C944101000000000000005F69
S113007000000007000700147F147F14242A7F2A3D
S11300801223130864623649552250000503000008
S1130090001C2241000041221C0014083E081408E0
S11300A0083E0808005030000008080808080060EE
S11300B060000020100804023E5149453E00427F82
S11300C0400042615149462141454B311814127F89
S11300D01027454545393C4A494930017109050312
S11300E03649494936064949291E0036360000007A
S11300F0563600000814224100141414141400414C
S11301002214080201510906324979413E7E111137
S1130110117E7F494949363E414141227F41412276
S11301201C7F494949417F090909013E4149497AEE
S11301307F0808087F00417F41002040413F017F44
S1130140081422417F404040407F020C027F7F041C
S113015008107F3E4141413E7F090909063E415155
S1130160215E7F09192946464949493101017F0128
S1130170013F4040403F1F2040201F3F4038403F48
S11301806314081463070870080761514945430064
S11301907F41410002040810200041417F00040215
S11301A00102044040404040000102040020545435
S11301B054787F48444438384444442038444448BC
S11301C07F3854545418087E0901020C5252523E8E
S11301D07F0804047800447D40002040443D007FB3
S11301E01028440000417F40007C041804787C08F7
S11301F004047838444444387C141414080814144F
S1130200187C7C080404084854545420043F444097
S1130210203C4040207C1C2040201C3C4030403C82
S113022044281028440C5050503C4464544C44001E
S11302300836410000007F00000041360800100825
S1130240081008000000000011241FBECFEFD8E002
S1130250DEBFCDBF11E0A0E0B1E0E4E9F5E102C00A
S113026005900D92AA32B107D9F723E0AAE2B1E0D2
S113027001C01D92A633B207E1F70E949F020C94BD
S1130280C80A0C94000084B18F6784B98AB1837E54
S11302908AB98CE18BB982E08093690091E09DBBBF
S11302A094E09093680098E190936D0084BD93E08E
S11302B095BD99EF97BD80936E0078940895CF9380
S11302C0AC01FB018081882309F496C080912F0141
S11302D0813051F1823009F456C0811187C085B153
S11302E0807885B985B1806685B9C5B19A01ADECD0
S11302F0BCEC0E94CF079695879596958795969521
S113030087959C01220F331F880F991F880F991F0F
S1130310880F991F820F931F9A01281B390BC9015B
S11303208F708C2B85B962C085B1807885B985B111
S1130330806585B9C5B19A01ADECBCEC0E94CF07CC
S1130340AC015695479556954795569547959A010C
S11303500E94CF079695879596958795969587954C
S11303609C01220F331F880F991F880F991F880F34
S1130370991F820F931F9A01281B390BC9018F7093
S11303808C2B85B933C085B1807885B985B18063FC
S113039085B9C5B19A013695279536952795ABE76A
S11303A0B4E10E94CF07AC01569547959A01ADEC94
S11303B0BCEC0E94CF079695879596958795969560
S11303C087959C01220F331F880F991F880F991F4F
S11303D0880F991F820F931F9A01281B390BC9019B
S11303E08F708C2B85B98FEF80932F0180912F0113
S11303F08F5F80932F011082CF9108954F925F9267
S11304006F927F92AF92BF92CF92DF92EF92FF9260
S11304100F931F93CF93DF93CDB7DEB762970FB6D9
S1130420F894DEBF0FBECDBFD801EC91EE2309F4E2
S113043071C029013A01C72ED62E9F938F930F2E98
S1130440F4E0EF2EF1E0FF2EF02DFF92EF925E012B
S1130450BFE0AB0EB11CBF92AF920E94DE07CF92F9
S1130460DF92FF92EF926E01E9E0CE0ED11CDF9293
S1130470CF920E94DE07C301B2010E9458067F9307
S11304806F93FF92EF92CE0101967C019F938F931D
S11304900E94DE070E946F0460E080E00E945B051A
S11304A061E087E091E00E94370540E560E08AE082
S11304B00E9448056EE080E00E945B0561E085E1F2
S11304C091E00E94370561E0C5010E94370568E1AB
S11304D080E00E945B0561E08FE191E00E943705B6
S11304E061E0C6010E94370562E289E10E945B0572
S11304F062E0C7010E94370561E085E291E00E9455
S113050037050E946005D8011C920FB6F894DEBF2F
S11305100FBECDBF62960FB6F894DEBF0FBECDBF3F
S1130520DF91CF911F910F91FF90EF90DF90CF90CB
S1130530BF90AF907F906F905F904F9008950E940E
S113054043010E9417046BE371E0809102019091D2
S113055003010E945F0120913001309131014091EB
S113056032015091330160913801709139010AE3ED
S113057011E080910001909101010E94FE01E3CFFE
S11305801F920F920FB60F921124CF92DF92EF9227
S1130590FF922F933F934F935F936F937F938F9328
S11305A09F93AF93BF93EF93FF93C0903401D09088
S11305B03501E0903601F09037018FEFC81AD80A60
S11305C0E80AF80AC0923401D0923501E09236016B
S11305D0F0923701C701B60125E030E040E050E079
S11305E00E948E07672B682B692B19F481E0809396
S11305F03B01C701B60124EF31E040E050E00E9426
S11306008E07672B682B692B19F481E080933A01DC
S1130610FF91EF91BF91AF919F918F917F916F91D6
S11306205F914F913F912F91FF90EF90DF90CF908A
S11306300F900FBE0F901F9018951F920F920FB638
S11306400F9211248F929F92AF92BF92CF92DF921A
S1130650EF92FF922F933F934F935F936F937F9308
S11306608F939F93AF93BF93EF93FF9380912E014A
S11306708530B9F58090340190903501A090360111
S1130680B090370180912A0190912B016401C81A1E
S1130690D90AE12CF12C60EE73E984E090E0A70123
S11306A096010E94B00730933901209338012091BC
S11306B0000130910101A5E3B2E00E94CF07A70138
S11306C096010E948E0730930301209302018092C9
S11306D02A0190922B01A0922C01B0922D0110922C
S11306E02E0180912E018F5F80932E016091000175
S11306F07091010180E090E00E94870626E53EE0CB
S113070049E450E40E94150720E030E543EC57E447
S11307100E94E6059B01AC016091300170913101AA
S113072080913201909133010E947A0560933001E7
S1130730709331018093320190933301FF91EF91D3
S1130740BF91AF919F918F917F916F915F914F91E5
S11307503F912F91FF90EF90DF90CF90BF90AF909B
S11307609F908F900F900FBE0F901F9018951F921F
S11307700F920FB60F9211248F939F934C9B0CC032
S11307808091000190910101883C910528F4019623
S113079090930101809300014B9B0BC08091000159
S11307A090910101009729F00197909301018093A2
S11307B000019F918F910F900FBE0F901F9018957D
S11307C098B1977F98B9662329F098B1946098B945
S11307D090E01FC098B19B7F98B9FACF47E050E0F2
S11307E0491B5109282F30E002C0359527954A95B9
S11307F0E2F720FF04C028B1226028B903C028B161
S11308002D7F28B928B1216028B928B12E7F28B9B5
S11308109F5F983018F388B1886088B9089560E0C4
S11308200E94E003089561E00E94E0030895CF93DD
S1130830DF9387B1886087B987B1806187B987B151
S1130840846087B987B1826087B987B1816087B9CD
S113085088B1806188B988B1886088B983EC99E0EF
S11308600197F1F700C0000088B18F7E88B98BE54D
S113087094E40197F1F700C0000088B1806188B961
S113088088B1877F88B981E20E940F0483E10E94C6
S11308900F0486E00E940F0482EC0E940F0480E2A1
S11308A00E940F0489E00E940F0480E80E940F0454
S11308B080E40E940F04C0E0D0E004C080E00E9405
S11308C013042196C83F91E0D907C0F388E00E9441
S11308D00F048CE00E940F04DF91CF91089580E80B
S11308E00E940F0480E40E940F04109234031092BB
S11308F0350380E090E005C0FC01E45CFE4F10820B
S11309000196883F21E09207B8F30895262F269593
S11309102695269590E034E5239F800D911D1124A2
S1130920442379F0677021E030E002C0220F331FC6
S11309306A95E2F7FC01E45CFE4F8081282B20835A
S11309400895677021E030E002C0220F331F6A95DA
S1130950E2F7FC01E45CFE4F20958081282320838C
S11309600895EF92FF920F931F93CF93DF93E82E96
S1130970F62E00E045C02E2D30E020523109802FA4
S11309806F2D0E948207F901EE0FFF1FEE0FFF1F6C
S1130990E20FF31FE80FF11DE859FF4FE491812F97
S11309A00E948207F0E002C0F595E7958A95E2F788
S11309B0E0FF0AC06091350380913403610F41E088
S11309C0800F0E94860409C060913503809134032E
S11309D0610F40E0800F0E9486041F5F01C010E099
S11309E0212F30E0CE01880F991F880F991F880F9F
S11309F0991F8C1B9D0B281739070CF4BCCF0F5F74
S1130A00202F30E0CF2DD0E0CE01880F991F880F22
S1130A10991F8C0F9D1F281739070CF3E4E3F3E0AB
S1130A208F2D880F880F8F0D9081890F8F5F8083A2
S1130A30843570F010923403E5E3F3E08F2D880FD2
S1130A40880F880F982F9F198081890F8F5F80836B
S1130A5080913503803320F01092340310923503D3
S1130A60DF91CF911F910F91FF90EF9008951F9305
S1130A70CF93DF93EC01162F04C02196612F0E94BF
S1130A80B10488818111F9CFDF91CF911F9108952D
S1130A901F93CF93DF93182FC62FD42F06C041E0A6
S1130AA0612F8C2F0E948604CF5FDC17C0F7DF9183
S1130AB0CF911F9108958093340360933503089573
S1130AC0CF93DF9380E80E940F0480E40E940F0418
S1130AD0C0E0D0E007C0FE01E45CFE4F80810E94CC
S1130AE013042196C83F81E0D807A8F3DF91CF9182
S1130AF008955058BB27AA270E9491050C94DB0641
S1130B000E94CD0638F00E94D40620F039F49F3FAD
S1130B1019F426F40C94CA060EF4E095E7FB0C9441
S1130B20C406E92F0E94EC0658F3BA17620773074C
S1130B308407950720F079F4A6F50C940E070EF4BB
S1130B40E0950B2EBA2FA02D0B01B90190010C01D9
S1130B50CA01A0011124FF27591B99F0593F50F4F1
S1130B60503E68F11A16F040A22F232F342F442749
S1130B70585FF3CF469537952795A795F040539541
S1130B80C9F77EF41F16BA0B620B730B840BBAF011
S1130B909150A1F0FF0FBB1F661F771F881FC2F77C
S1130BA00EC0BA0F621F731F841F48F48795779590
S1130BB06795B795F7959E3F08F0B0CF9395880F4A
S1130BC008F09927EE0F9795879508950E94FA05E6
S1130BD00C94DB060E94D40658F00E94CD0640F027
S1130BE029F45F3F29F00C94C40651110C940F07AB
S1130BF00C94CA060E94EC0668F39923B1F35523BA
S1130C0091F3951B550BBB27AA276217730784071B
S1130C1038F09F5F5F4F220F331F441FAA1FA9F3B1
S1130C2035D00E2E3AF0E0E832D091505040E6959F
S1130C30001CCAF72BD0FE2F29D0660F771F881F00
S1130C40BB1F261737074807AB07B0E809F0BB0BF3
S1130C50802DBF01FF2793585F4F3AF09E3F510507
S1130C6078F00C94C4060C940F075F3FE4F3983EAD
S1130C70D4F3869577956795B795F7959F5FC9F7F0
S1130C80880F911D9695879597F90895E1E0660F71
S1130C90771F881FBB1F621773078407BA0720F0EA
S1130CA0621B730B840BBA0BEE1F88F7E095089553
S1130CB00E94F40688F09F5798F0B92F9927B751EE
S1130CC0B0F0E1F0660F771F881F991F1AF0BA95EC
S1130CD0C9F714C0B13091F00E940E07B1E0089535
S1130CE00C940E07672F782F8827B85F39F0B93F27
S1130CF0CCF3869577956795B395D9F73EF490959F
S1130D008095709561957F4F8F4F9F4F0895E8941C
S1130D1009C097FB3EF490958095709561957F4F3F
S1130D208F4F9F4F9923A9F0F92F96E9BB279395ED
S1130D30F695879577956795B795F111F8CFFAF4FD
S1130D40BB0F11F460FF1BC06F5F7F4F8F4F9F4F2E
S1130D5016C0882311F096E911C0772321F09EE88C
S1130D60872F762F05C0662371F096E8862F70E0F2
S1130D7060E02AF09A95660F771F881FDAF7880FCC
S1130D809695879597F9089597F99F6780E870E09D
S1130D9060E008959FEF80EC089500240A941616ED
S1130DA0170618060906089500240A941216130655
S1130DB0140605060895092E0394000C11F48823E3
S1130DC052F0BB0F40F4BF2B11F460FF04C06F5FFF
S1130DD07F4F8F4F9F4F089557FD9058440F551FD5
S1130DE059F05F3F71F04795880F97FB991F61F0A9
S1130DF09F3F79F087950895121613061406551F20
S1130E00F2CF4695F1DF08C0161617061806991F8B
S1130E10F1CF86957105610508940895E894BB2780
S1130E2066277727CB0197F908950E9428070C9429
S1130E30DB060E94CD0638F00E94D40620F09523EC
S1130E4011F00C94C4060C94CA0611240C940F07D8
S1130E500E94EC0670F3959FC1F3950F50E0551F67
S1130E60629FF001729FBB27F00DB11D639FAA27FB
S1130E70F00DB11DAA1F649F6627B00DA11D661F4A
S1130E80829F2227B00DA11D621F739FB00DA11D6B
S1130E90621F839FA00D611D221F749F3327A00D25
S1130EA0611D231F849F600D211D822F762F6A2FC1
S1130EB011249F5750409AF0F1F088234AF0EE0F26
S1130EC0FF1FBB1F661F771F881F91505040A9F753
S1130ED09E3F510580F00C94C4060C940F075F3FAD
S1130EE0E4F3983ED4F3869577956795B795F7958F
S1130EF0E7959F5FC1F7FE2B880F911D9695879507
S1130F0097F90895991B79E004C0991F961708F082
S1130F10961B881F7A95C9F780950895A1E21A2E29
S1130F20AA1BBB1BFD010DC0AA1FBB1FEE1FFF1F89
S1130F30A217B307E407F50720F0A21BB30BE40BD9
S1130F40F50B661F771F881F991F1A9469F7609520
S1130F507095809590959B01AC01BD01CF010895DA
S1130F60052E97FB1EF400940E94C70757FD07D077
S1130F700E948E0707FC03D04EF40C94C7075095CB
S1130F804095309521953F4F4F4F5F4F0895909571
S1130F908095709561957F4F8F4F9F4F0895A29FC5
S1130FA0B001B39FC001A39F700D811D1124911D39
S1130FB0B29F700D811D1124911D0895AEE0B0E023
S1130FC0E4EEF7E00C949F0A0D891E8986E08C8379
S1130FD01A8309838FEF9FE79E838D83AE01475E5B
S1130FE05F4F6F89788DCE0101960E940008EF81D2
S1130FF0F885E00FF11F10822E96E4E00C94BB0AF2
S1131000ABE0B0E0E6E0F8E00C94910A6C017B01FF
S11310108A01FC0117821682838181FFCCC1CE0133
S113102001963C01F6019381F70193FD859193FFAD
S113103081917F01882309F4BAC1853239F493FD83
S1131040859193FF81917F01853229F4B60190E067
S11310500E94F709E7CF912C212C312CFFE1F315E5
S1131060D8F08B3279F038F4803279F08332A1F4FD
S1131070232D20611DC08D3261F0803369F4232D4E
S1131080216016C0832D8260382EE32DE4603E2E4D
S11310902AC0F32DF8601DC037FC2DC020ED280FA9
S11310A02A3040F08E32B9F436FC81C1232D2064FD
S11310B0322E19C036FE06C08AE0989E200D1124F7
S11310C0922E11C0EAE02E9E200D1124222EF32D23
S11310D0F0623F2E08C08C3621F4832D8068382EB0
S11310E002C0883641F4F70193FD859193FF819105
S11310F07F018111B3CF982F9F7D9554933028F4AD
S11311000C5F1F4F9FE399830DC0833631F0833703
S113111071F0833509F059C021C0F80180818983B9
S11311200E5F1F4F88248394912C530113C0280110
S1131130F2E04F0E511CF801A080B18036FE03C0CE
S1131140692D70E002C06FEF7FEFC5010E94EC09CA
S11311504C018201F32DFF773F2E16C0280122E0B7
S1131160420E511CF801A080B18036FE03C0692DE7
S113117070E002C06FEF7FEFC5010E94E1094C01EE
S1131180F32DF0683F2E820133FC1BC0822D90E0CA
S113119088169906B0F4B60180E290E00E94F7093F
S11311A02A94F4CFF50137FC859137FE81915F01D4
S11311B0B60190E00E94F70921102A9421E0821AD6
S11311C091088114910471F7E8C0843611F08936CE
S11311D041F5F80137FE07C06081718182819381F6
S11311E00C5F1F4F08C060817181072E000C880BB3
S11311F0990B0E5F1F4FF32DFF763F2E97FF09C00B
S113120090958095709561957F4F8F4F9F4FF068B3
S11312103F2E2AE030E0A3010E94330A882E86186C
S113122045C0853731F4232D2F7EB22E2AE030E0DD
S113123025C0932D997FB92E8F36C1F018F48835C7
S113124079F0B5C0803719F0883721F0B0C0E92FA4
S1131250E061BE2EB4FE0DC0FB2DF460BF2E09C0AC
S113126034FE0AC0292F2660B22E06C028E030E0E2
S113127005C020E130E002C020E132E0F801B7FE11
S113128007C060817181828193810C5F1F4F06C00A
S11312906081718180E090E00E5F1F4FA3010E9486
S11312A0330A882E8618FB2DFF773F2E36FE0DC09D
S11312B0232D2E7FA22E891458F434FE0BC032FC49
S11312C009C0832D8E7EA82E05C0B82CA32C03C084
S11312D0B82C01C0B92CA4FE0FC0FE01E80DF11D0D
S11312E08081803321F49A2D997EA92E09C0A2FE13
S11312F006C0B394B39404C08A2D867809F0B394DD
S1131300A3FC11C0A0FE06C0B21488F4280C922CD1
S11313109B180EC0B21460F4B60180E290E00E9403
S1131320F709B394F7CFB21418F42B1802C0982C11
S1131330212CA4FE10C0B60180E390E00E94F709BE
S1131340A2FE17C0A1FC03C088E790E002C088E5B4
S113135090E0B6010CC08A2D867859F0A1FE02C037
S11313608BE201C080E2A7FC8DE2B60190E00E940E
S1131370F709891438F4B60180E390E00E94F70974
S11313809A94F7CF8A94F301E80DF11D8081B60198
S113139090E00E94F7098110F5CF222009F442CE93
S11313A0B60180E290E00E94F7092A94F6CFF60194
S11313B08681978102C08FEF9FEF2B96E2E10C9418
S11313C0AD0AFC010590615070400110D8F780957A
S11313D090958E0F9F1F0895FC01615070400190FD
S11313E00110D8F7809590958E0F9F1F08950F9345
S11313F01F93CF93DF93FB01238121FD03C08FEF64
S11314009FEF2CC022FF16C046815781248135816D
S11314104217530744F4A081B1819D012F5F3F4FD0
S1131420318320838C93268137812F5F3F4F37830D
S1131430268314C08B01EC01FB010084F185E02DAF
S11314400995892BE1F6D80116968D919C911797F1
S1131450019617969C938E931697CE01DF91CF91A8
S11314601F910F910895FA01AA27283051F12031D4
S113147081F1E8946F936E7F6E5F7F4F8F4F9F4F24
S1131480AF4FB1E03ED0B4E03CD0670F781F891F66
S11314909A1FA11D680F791F8A1F911DA11D6A0F34
S11314A0711D811D911DA11D20D009F468943F91E7
S11314B02AE0269F11243019305D3193DEF6CF01E6
S11314C00895462F4770405D4193B3E00FD0C9F7AC
S11314D0F6CF462F4F70405D4A3318F0495D31FD19
S11314E04052419302D0A9F7EACFB4E0A69597956C
S11314F0879577956795BA95C9F700976105710542
S113150008959B01AC010A2E06945795479537958B
S11315102795BA95C9F7620F731F841F951FA01DE5
S113152008952F923F924F925F926F927F928F9283
S11315309F92AF92BF92CF92DF92EF92FF920F935E
S11315401F93CF93DF93CDB7DEB7CA1BDB0B0FB668
S1131550F894DEBF0FBECDBF09942A883988488825
S11315605F846E847D848C849B84AA84B984C884BB
S1131570DF80EE80FD800C811B81AA81B981CE0FB2
S1131580D11D0FB6F894DEBF0FBECDBFED01089597
S1071590F894FFCFF9
S113159441007B00257500436F6D702E20426F72ED
S11315A4646F3A200044696D28636D293A2000521F
S10D15B4504D3A20004B6D3A200020
S9030000FC
